:020000041000EA
:4000000000400208230100100D00000085010010000000000000000000000000000000000000000000000000000000008101001000000000000000008101001081010010E9
:400040008101001081010010810100108101001081010010810100108101001081010010810100108101001081010010810100108101001081010010810100108101001060
:400080008101001081010010810100108101001081010010810100108101001081010010810100108101001081010010810100108101001081010010810100108101001020
:4000C00010B5064C2378002B07D1054B002B02D0044800E000BF0123237010BD3C06000800000000FC260010084B10B5002B03D00749084800E000BF07480368002B00D108
:4001000010BD064B002BFBD09847F9E70000000040060008FC260010E8000008000000007047FFF7FDFF72B60F4C104DAC4209DA21686268A368043B02DBC858D050FAE787
:400140000C34F3E70A490B4A0020521A02DD043A8850FCDC084809490860BFF34F8F00F007F900F01DF8FEE700270010182700103C0600084C0800080000000808ED00E0E7
:40018000FEE7FEE700B504207146084202D0EFF3098001E0EFF30880043001F0CBFAFEE710B5034800F06AF9002001F07FFEFBE70000081010B5002001F038F810BDC04680
:4001C00070B56249E0239B00CB580F2213401A00D0329200525807210A40032A05D0042A06D0002A12D15A4814E05A4A106811E01A00C0329200554952581F210A40112ABF
:4002000006D0132A04D0FA20C00103E0524801E080200002002B36D14C4BB222D2009A5801211140B125ED005A59120F032422405B591B0F1C4207D0444C63591B0F032458
:400240002340012B02D102E0012300E00023002B01D0002901D1032A4BD13C4BB022D2009D58AD03AD0B3D495958C904C90C9C58240E01231C40013401F0CAFE6843210012
:4002800001F0C6FE35E0012B33D1304BC822D2009A5801251540C024E4001A59120F03210A401B591B0F194207D028490B591B0F03210B40012B02D102E0012300E0002390
:4002C000002B01D0002D01D1032A12D11F4DC022D200AB587F210B40A958090A1F263140AC58240C3440584301F092FE210001F08FFEE0239B00154AD3581B0903221340F4
:40030000D840144C6060164B1D692D0AFC32154001351969090E013101F07AFEA060290001F076FE0500E06020610E4BC0180E4901F06EFE20750D4BE818FA21890001F0BF
:4003400067FEA061C003E06170BDC0460000264000127A00C000000800366E0184050000000021403F420F0040420F00E703000010B5284801F046FE274CB022D200A35810
:400380005B005B08A350E0218900635830208343635080235B04A350204A214BE250A02292010433E250FF221E4BE25001F018FEC0225200A35801218B43A35000F042FAC2
:4003C000FFF7FEFEB0235B055B78002B04D0B0235B055B78DBB200E02123212B03D1124B0022DA605A60114C22008021042000F0C3FC2000103000F057FD0D4B1A685123D7
:40040000D35C002B02D00B4800F0C4FD00F08CFB10BDC046442600100000264001000200840500008C050000E00023405806000848080008882100108023024AD35803204E
:40044000184070470000214010B501F006FA084980228C58074B2340074C23438B508823034AD358DB06FAD501F0FBF910BDC04600002140FCFF00000100FA0570B5050025
:40048000830504D0E821FF310F4801F025F901F0E4F90400FFF7D0FF032801D1FFF7D4FF0A4AB0239B00D55080215058084B03400848034353508823044AD358DB06FAD511
:4004C000200001F0CEF970BDBC21001000002140FCFF00000300FA05FEE7C0460323064A1360064A136080225201054B1A60054A054B1A607047C046082031401020314046
:400500009402364001001180000E1F4130B587B0B849A022D2008B58032083438B50B6490B681A6885301B58D2181068B34B184010600A6810688424125980180268120200
:40054000120A0260086805680259AA181068034080204000034313600B683E229A5C002A06D0A448E02189004258753CA24342503E229A5C002A06D09E48E021890042584E
:400580003024A24342503E229B5C002B07D09949E02292008B588020000603438B500021012000F075FE0021022000F071FE0021032000F06DFE0021042000F069FE002154
:4005C000002000F065FE01A88D4903000A0032CA32C312CA12C300F089FE002802D00420FFF77AFF8349874A8B588020000603438B50854800F036FF002802D00420FFF709
:400600006BFF7C4C814BE158814A0A40E250E158804A0A40E250E25880252D062A43E250043BE1587C4A0A40E250E1587B4A0A40802189010A43E250E258802109020A432D
:40064000E250774A1168774B0B40802149000B431360002001F0A6FC734BE2581543E550E158012291430A43E2506421002001F079F8614B1B683F229A5C052A06D9702242
:400680009A5C02210A406949986842509A6874215B5AD2189168594B0B408E21C9010B439360554B1B6873229A5C0321914070229A5C7220185C14008440214302200240EA
:4006C0000A43802109060A438021C900986842509A6852583F229A5C062A06D970229A5C01210A405249986842509A6874215B5AD3185968414A0A405A603F4B1B68732258
:400700009A5C0321914070229A5C7220185C140084402143012002400A43802109060A438021C900986842509A6852583F229A5C132A0AD97122985C703A8240110003220F
:4007400082400A403B49986842509A6876215B5AD2181168384B0B4038490B431360264B1B6873229A5C0324210091400A007021585C0231595C8840104371229A5C012101
:400780009140944022000A400243802109060A438021C900986842509A6852583F229A5C332A03D90021264A986881509A6874215B5AD2181168114B0B40FE2109020B437E
:4007C00013600D4B1A687323D15C703B8B4019007023D35C7220105C83400B43802109060B438021C9009068435093685B5807B030BDC0460000264048080008FF00FFFF83
:40080000D4210010087F0000400D030004050000FEFCFFFFFFFF00FFFFF0FFFFFF8FFFFF00002740FFFCFFFF0C050000140C0000180C00004C0C0000FF0000FF004FC30048
:40084000CC0C000070B58AB09621002000F08AFF00F060FF002814D100F04CFFC0235B004B4AD358DB0705D411004A4A8B585B005B088B504649474A8B5880200006034391
:400880008B50012001F02CFA434A516C434B0B40E82189010B435364536C1B0AFF2213403A2B07D13C4A516C3D4B0B40E82189010B435364FFF72AFE01AC3A4D22002B0088
:4008C000143343CB43C243CB43C243CB43C22100354800F031F922002B00383343CB43C243CB43C243CB43C22100304800F024F922002B005C3323CB23C223CB23C223CBB9
:4009000023C221002A4800F017F92A4D23002A0043CA43C343CA43C343CA43C32100264800F00AF924220021200001F0FDFB862301932100214800F0FFF822002B002433FE
:4009400043CB43C243CB43C243CB43C221001C4800F0F2F822002B00483323CB23C223CB23C223CB23C22100164800F0E5F824220021200001F0D8FBC023DB05E3602100E0
:40098000114800F0D9F8FFF7A9FD0AB070BDC046000026400C05000000002740FF00FFFFFFC5FFDFD4210010000032408000324080023240542200100003324080033240CA
:4009C000000432400006324080063240214B984230D00ED8402831D004D800281FD010282AD031E080282BD080235B00984229D02AE0194B984229D007D8A0231B069842F4
:400A00000DD0164B984212D01EE0154B98420AD0144B984209D0144B984215D101E0002016E0124814E0124812E0124810E0A020C0030DE007480BE00F4809E00F4807E076
:400A40000F4805E0034803E00E4801E0A420C0037047C04606005200010000F0090000A0040000F0050000F0030000F0010052000200520003005200010050000200500024
:400A800005005200FF00520070B5124B1A683123D35C002B04D1C421FF310F4800F01CFE0C4B1D682C00B423EB582A6A944663441B68002B0BDB094B1868FFF787FF6B68A3
:400AC00001229A6063689B68002BFBD100E0044870BDC04648080008C0220010E80700080200500010B50D4B1861002805D002230370FD33437000234380094B1B685022E5
:400B00009A5C002A08D051229B5C002B04D04F3A0449002000F0F8FA10BDC046E8070008480800086101000810B502481430FFF7D9FF10BDE807000870B505000C000028AD
:400B40005DD000295DD0FF230A689A4303D099212D4800F0C1FDFF2322699A4303D09A21294800F0B9FDA3685B0D03D09B21264800F0B2FD63685B0A03D09C21224800F079
:400B8000ABFDE3695B0F03D09D211F4800F0A4FD236A5B0F03D09E211B4800F09DFD1B4A11688B69EB1ADB0949691B01CB18216829607D211068415C6918E06808607E21D7
:400BC0001068415C6918206908607F211068415C6918606908607C211068415C6918A06808606168A961116880228A5CAD18A2692A60E2691A60226A5A60002002E00448DD
:400C000000E0034870BDC046002300104808000801005A0070B504000D000A4B1A68B423D3581B181B68002B0ADA0B0C03D00649064800F051FD2D042D0C6560002000E0A8
:400C4000034870BD48080008D50200008023001001008A0070B505000C000368002B01DA002300E0084B002B0BD1EA60230C03D00649074800F030FD2404240CAC60002000
:400C800000E0014870BDC04601008A00BB0200008023001070B505000C1E03D19921084800F01AFD074B1A68B423D3585B191B68002B03DAEB682360002000E0024870BD82
:400CC000C02300104808000801008A0070B504000D00234B1A683123D35C834236D9002936D00B68DB0635D13123D35C984204D3C421FF311B4800F0EFFC194B1B681A6A26
:400D0000B0215B5A5C431419174E34602B68DA080021686801F008FA00212000FFF77AFF3468002D03D111490E4800F0D5FC2A0000212000FFF78EFF00280DD10A4B186888
:400D40000021FFF767FF002808D108E0084806E0074804E0064802E0064800E0054870BD4808000880230010000800089303000003018A0001018A0010B50400002A17D126
:400D8000002915D1124B1A683123D35C984204D3C421FF310F4800F09FFC0D4B1B681A6AB0215B5A5C4314190B4B1C6000200EE0002A09D0002909D0074B59609A60191D49
:400DC0002000FFF783FF02E0044800E0034810BD48080008802300100008000803018A00F0B583B00D001C4B1B68DC68236883422DD947097B01C01A012383401E0000294F
:400E000003D100F02AFD019001E000230193124B18680368002B01DA002300E00F4B002B0ED16368BF00DF193B68334203D0B3433B60002400E00A4C0021FFF7EBFE00E0B1
:400E4000084C002D04D1019800F00BFD00E0064C200003B0F0BDC0460008000801008A00020188000301880004018A000A4B1B68DA68136883420BD943095901401A012132
:400E8000814052689B009B580B4203D0034802E0034800E003487047000800080101880004018A0000018800034B1B68002B01D1014B18607047C0460C080008F0B5474660
:400EC00080B404000F0090461E002D4B1B68002B03D1B5212B4800F0FFFB294B1B682C2060431C18FF22150035402560330A13406360360CA660244B1A683123D35C9D4252
:400F000004D3C421FF31214800F0E6FB1E4B1A68B023D35A6B43116A8C466344236166683223D35C9E4204D3E021FF31174800F0D3FB154B1B681D6A80367601AD19656100
:400F4000A668330C04D0FF214900104800F0C4FB330C03D00E490D4800F0BEFB3604330C1E43AE604346E36127620023A361069B002B02D000229B5EA38104BC9046F0BDF4
:400F80000C080008002400104808000880230010FF010000F0B58FB0041E03D15221294800F09AFB6368032B03D95421254800F093FBE36A002B03D15821224800F08CFBB8
:400FC000236B002B03D159211E4800F085FB07AA1300210061C961C321C921C302AD290023001433C1CBC1C141CB41C10821535E0CAE3380144B1B6836215B5E07998C460A
:401000006344B370089B0D930B9B0A980096A26AE16AFFF753FF2B69E868002200920021FFF74CFF216B300000F0E8FA0023F25E002A05DB1F231A401E3B9340034A136099
:401040000FB0F0BD002400104808000800E100E0F8B505000F0016001C00002A03D1FD21224800F039FB224B1B68002B03D1FE211E4800F031FB1E4B1B682C21280048439E
:40108000181879435918012213004D68AB401B044568AA4015000269002A20D08F69002F1FD11268002A01DA002200E0114A002A19D132681204120C134333600369DE6045
:4010C00001238B614C6204692B0C03D00A490B4800F002FB2A04120CA260002004E0084802E0084800E00748F8BDC046002400100C08000801008A00BB020000802300101F
:4011000004028A0007028A0070B504000D0016000F4B1B68002B04D1AF2149000D4800F0DBFA0B4B1B682C2060431C18236A002B04D1B1214900074800F0CEFAE369B34244
:4011400004D9236AB6009D51002000E0024870BD0C080008002400100A028A0070B582B0040000230193002804D1D221FF312D4800F0B2FA2369002B04D1E9214900294871
:4011800000F0AAFA6369002B04D1D421FF31254800F0A2FA236A002B04D1EA214900214800F09AFA6269D5682B0C24D01B041360136820691C4B1A68B423D358C3181B68D1
:4011C000002B18DA01A9FFF765FD00280ED1019803681E0CFF221340E269934207D29B00226AD358002B02D0984700E0002631002069FFF70FFD2D042D0C0FD063691D60AC
:401200001B68636A002B03D098470023636203E0A36A002B00D098470023A36163691B6802B070BD002400104808000810B50400084B1B68002B04D1B221FF31064800F00E
:401240004BFA044B1B682C2060431818FFF786FF10BDC0460C0800080024001010B50400094B1B689B6CC340DB0703D4BE21074800F032FA044B1B681B691034A402E35872
:401280000F20184010BDC0464808000840240010134B1A683C23D35C83421DD9042904D94B1EFF3B9BB2132B18D8FF290CD91F2319400C4A0300C0339B009950D0308000BF
:4012C0000423835000200AE007231940D0308000044BC150002002E0034800E002487047480800080000264001004A0070B5041E03D14A494A4800F0EFF9B023DB00494AF7
:40130000D358002B00DA87E0474B22689A4203D94649434800F0E0F923689B039B0BE279002A02D08022520400E000221343B022D2003C498B50A2883D4B9A4204D98C21CD
:401340008900374800F0C8F922893A4B9A4203D93949334800F0C0F9A388DB04D90C23891B04364A13400B43354A2E498B50A37A0F2B04D98E218900294800F0ADF9E37AAA
:401380000F2B03D92F49264800F0A6F9A289284B9A4203D92C49224800F09EF9A37A0F211940E27A1201FF2313400B43A289120226490A401343A27B1207C02189050A40D1
:4013C0001343B122D20017498B50A379042B03D91F49134800F080F9228A164B9A4204D9912189000E4800F077F90E4819494558194B1D40A3791B02E022D20013402B43C9
:4014000043504558154B1D40238A1B040B4A13402B434350002000E0114870BD1F0200008024001000002640FFFF030029020000FF1F0000FF010000310200000000FF010C
:4014400084050000390200003A02000000FF1F00430200008C050000FFF8FFFFFFFF00FE03004A0070B505003149324A8B588020000603438B502C0003E0012000F020F937
:40148000013CB223DB002A4AD3585B0701D4002CF3D12749B122D2008858274B03408020800503438B50002D01D0002C0CD02049B022D2008B588020000603438B5003E0E9
:4014C000012000F0FDF8013CB223DB00184AD358DB0701D4002CF3D1002D01D0002C08D01349B122D2008B58C020800503438B5013E00F4BB121C90058580F4A0240802086
:40150000800502435A5008395A58520052085A5008495A58520052085A50002D03D0002C03D0002002E0002000E0044870BDC046000026408C050000FFFFFFCF02004A0006
:4015400070B505000C001A4B1B6828229A5C012A15D1820807211000884327D19200AD1AED00FF20A8401B6820339A181168AC4023004B40184004004C40146016E03A22E1
:401580009B5EDBB2994203D176210A4800F0A4F8074B1B681B68072215408022120615438022920194466444A400E55070BDC046480800080825001070B504000D000B4BB5
:4015C0009A680B4B9A420CD1002904D13821FF31084800F081F81034054BA400E058E55003E01034A400044BE05870BD00ED00E0000000080825001000000010F0B5474622
:4016000080B482B0061E01914AD04368032B03D93221264800F060F80023F05E002804DBB178FFF78DFF002400E0214C0023F15E7368002912DB88081E4FC0308000C55934
:4016400003221140C900FC3290468A4095439A01434613408B402B43C35116E089B20F220A40083A92080632920013481018476803221140C900FF252A008A4097439A0171
:401680002B0013408B403B4343600B4B9A680B4B9A4206D10023F05E0199FFF78DFF00E0034C200002B004BC9046F0BD082500100100560000E100E000ED00E00000000864
:4016C00010B5034B1B78584300F0BEF810BDC046D400000801BEFEE770B50D00044C18220100200000F028FDA5610020FFF7F2FF00060008054B802212069A649B6C002B69
:4017000001DB002000E002487047C0460000274003004600054B8022120198585B68FF221A4202D08023DB021843704700002640FEE7C04610B50A4B0268DA6142681A6247
:4017400082685A62C2689A620269DA6242691A6382695A63C2699A63FFF7EAFF10BDC04600060008F0B5474680B4002801D0192300E064238B429B415B42304D2C6822685B
:40178000A826A45BA41822680327BA433B401A4322602C682268A45BA2181668284CA046264016602C682668AA229446A25A96193268BA43134333602A6813686546525BB2
:4017C000D3181A68444614401C60002805D010291BD921291BD8012024E0184B1B6855229A5C914215D956229A5C914213D957229A5C914211D958229A5C91420FD9592283
:401800009B5C99420DD804200CE000200AE0022008E0002006E0012004E0022002E0032000E00520054A1268526813680F218B430343136004BC9046F0BDC0464808000840
:40184000FFFCFFFF000000000230800803D001300238FCD1C046C0467047EFF3108072B6704780F31088704710B5B0235B059B899BB2002B04D0B0235B059B899BB201E0E7
:4018800080235B0080225200934215D1184C23681968683A9B58C9180B680F208343963A13430B6021680C689C23CB58E318196881430A431A6019E00D4C2368196898229E
:4018C0009B58C918B02040050A4BC2580A4B13400A681343C022920013430B60226811689C23D358CB18054A82581A6010BDC0464808000848180000FFFCFFFF4418000098
:4019000030B5B0235B059B899BB2002B04D0B0235B059B899BB201E080235B0080225200934215D1184C23681968683A9B58C9180B680F208343953A13430B6021680C6812
:401940009C23CB58E318196881430A431A6019E00D4D2B68196898229B58C918B0246405C12040012258094B13400A681343C022920013430B602A6811689C23D358CB1834
:4019800022581A6030BDC04648080008FFFCFFFFB0235B059B899BB2002B04D0B0235B059B899BB201E080235B008022520093420DD1104B1B681A6898215B58D2181168F3
:4019C0000D4B0B40C021C9010B43136011E0094B1B68196898229B58C918084BB0225205D258074B13400A681343C022920013430B60704748080008FF8FFFFF18180000EE
:401A0000FFFCFFFF30B5B0235B059B899BB2002B04D0B0235B059B899BB201E080235B008022520093420DD1134B1B681A6898215B58D2181168114B0B408021C9010B4369
:401A4000136018E00C4D2B68196898229B58C918B02464050A4822580A4B13400A681343C022920013430B602A6811689C23D358CB1822581A6030BD48080008FF8FFFFFB5
:401A80004C180000FFFCFFFF10B5B0235B059B899BB2002B04D0B0235B059B899BB201E080235B0080225200934217D10020FFF7D5FBB0235B055B78002B04D0B0235B050F
:401AC0005B78DBB200E02123222B03D8002803D1013004E0012002E0002000E0012010BD30B585B004000D00022807D9042805D0032803D02A492B48FFF7EEFD6B1EDBB227
:401B0000012B07D9042D05D0082D03D026492548FFF7E2FDA400254BE458042D13D0012D1CD112E0A3682B420BD1E3681A6802925B6801930393290002A8236898471B4B24
:401B40005C61646902E0002000E00020002C24D0174B9842E6D1012DE4D11EE0022D01D104E01C006369002BFBD104E00F4B5C69002C00D0246900200DE0A3682B4209D136
:401B8000E3681A6802925B6801930393290002A8236898472469002CEFD105B030BDC046B20900004C250010B309000010080008FF004200F8B50700012803D93D493E485B
:401BC000FFF78AFDB0235B055B78002B04D0B0235B055B78DBB200E021239DB2B0235B059B899BB2002B04D0B0235B059E89B6B201E0802676000020FFF730FB002814D1AD
:401C000080235B009E4212D1222D12D82B4B1B685C682B4821582B4B19403B068022520413400B432350002404E0274C02E0264C00E0254C80235B009E4201D1222D03D8EB
:401C400080235B009E4232D01C4B1A683123D35C002B04D1C421FF311C48FFF73DFD174B1B681D6A80235B009E4203D1002F05D0174A06E0002F03D0164A02E0164A00E082
:401C8000164A01212800FEF7E5FF00280FD10B4B1A68B423D3585B191B68002BF7DBEB681B0E1B06A0221206934200D100242000F8BDC0464C0A00004C2500104808000880
:401CC00018F00000FFFFFFFE04004200C0220010010100300300000C010000300100000CF8B50500012804D9822109012948FFF7F3FCFFF7C9FE002849D0FFF7AEFD0700C9
:401D0000002D11D10021244B244AD150E823DB00B0225205D65CF6B20120FFF74BFF041E19D1FFF7A1FD16E0B02252051C4BD0581A4B194958501B49565CF6B21A481A58DC
:401D40001F218A4314390A431A500320FFF7B8FCFFF758FE0024002C15D11049124A8B581F20834306401E438E50002D02D1FFF70FFE08E00720FFF7A3FCFFF7C1FD002066
:401D8000FFF718FF04003800FFF76BFD00E0074C2000F8BD4C250010307F00000000264010180000410700001CFF00000300420010B5041E03D115491548FFF78DFC154BB9
:401DC0001A68D168F222D2018A5822601B68F022D201D9688A5862600F4AD9688A58A2600E4AD9688A58E2600D4AD9688A5822610C4AD9688A5862610B4AD9688A58A261A1
:401E0000DA680A4BD358E36110BDC046A10A00004C2500104808000804780000087800000C78000010780000147800001878000010B5041E03D114491448FFF74DFC144B0F
:401E40001B68F022D201D96860688850114AD968A0688850104AD968E06888500F4AD968206988500E4AD968606988500D4AD968A06988500C4AD968E0698850DA682168B1
:401E8000F223DB01D15010BDC90A00004C2500104808000804780000087800000C78000010780000147800001878000070B50500012804D9A62189003548FFF70DFC354BF7
:401EC0005B68002B05D001210120FFF709FE040000E00024002C53D1FFF7BFFC06002D4B5B68002B03D004210120FFF7F9FD2A4B1B6843229A5C002A08D09A68E023D358E0
:401F0000DB0603D523481830FFF752FFB0235B059B899BB2002B04D0B0235B059B899BB201E080235B0080225200934203D1280000F022F909E0194A116904230B43136149
:401F4000012D01D030BF00E020BF134B1B6843229A5C002A08D09A68E023D358DB0603D50C481830FFF764FF3000FFF77AFC094B5B68002B09D008210120FFF7B1FD04E00F
:401F800002210120FFF7ACFD054C200070BDC0464C250010100800084808000800ED00E0FF004200042805D10B4A116804230B4313600FE0094B1A681168A023D358CB18CC
:401FC0000006C022920410401860034A136804218B4313607047C04610E000E0480800080749C02252008B589B009B088020C00503438B508B588020000603438B507047FC
:4020000000002640014B18607047C04648080008002243088B4274D303098B425FD3030A8B4244D3030B8B4228D3030C8B420DD3FF22090212BA030C8B4202D3121209027A
:4020400065D0030B8B4219D300E0090AC30B8B4201D3CB03C01A5241830B8B4201D38B03C01A5241430B8B4201D34B03C01A5241030B8B4201D30B03C01A5241C30A8B422F
:4020800001D3CB02C01A5241830A8B4201D38B02C01A5241430A8B4201D34B02C01A5241030A8B4201D30B02C01A5241CDD2C3098B4201D3CB01C01A524183098B4201D3A8
:4020C0008B01C01A524143098B4201D34B01C01A524103098B4201D30B01C01A5241C3088B4201D3CB00C01A524183088B4201D38B00C01A524143088B4201D34B00C01A42
:402100005241411A00D20146524110467047FFE701B5002000F006F802BDC0460029F7D076E770477047C04603008218934202D019700133FAE77047030030B5002A0DD040
:402140000C7801335D1E013A2C700131002CF5D19A189A4202D01C700133FAE730BD0000F8B5C046F8BC08BC9E467047F8B5C046F8BC08BC9E46704701B40248844601BC31
:40218000604700BF350300080300000001000000010000000000000005036000040000000100000000000000010000000604600008000000C8070008B50100107379737424
:4021C000656D5F70736F63365F636D30706C75732E630000F4010000140004010A000905080000006301000010000000100000000002000000060A0000000000000000004B
:4022000000000000000000000000000001000000000000000000000060000000000000000000000000000000000000000000000003000000000000000000000068866606E0
:402240000000000000000000000000001212000000000000000000000000000000000000000000BA0000000000000000000000000000000000001D1DFE0000000000000048
:4022800000000000000000000000000000000000000000000004040000000000070000000000000000000000866600000000000000000000000000001414140000000000E7
:4022C00047656E6572617465645F536F757263655C50536F43365C70646C5C647269766572732F7065726970686572616C2F6970632F63795F6970635F6472762E680000F4
:4023000047656E6572617465645F536F757263655C50536F43365C70646C5C647269766572735C7065726970686572616C5C6770696F5C63795F6770696F2E6300000000F6
:4023400047656E6572617465645F536F757263655C50536F43365C70646C5C647269766572735C7065726970686572616C5C6770696F5C63795F6770696F2E6800000000B1
:4023800047656E6572617465645F536F757263655C50536F43365C70646C5C647269766572735C7065726970686572616C5C6970635C63795F6970635F6472762E680000AC
:4023C00047656E6572617465645F536F757263655C50536F43365C70646C5C647269766572735C7065726970686572616C5C6970635C63795F6970635F6472762E63000071
:4024000047656E6572617465645F536F757263655C50536F43365C70646C5C647269766572735C7065726970686572616C5C6970635C63795F6970635F706970652E6300CE
:4024400047656E6572617465645F536F757263655C50536F43365C70646C5C647269766572735C7065726970686572616C5C70726F745C63795F70726F742E630000000089
:4024800047656E6572617465645F536F757263655C50536F43365C70646C5C647269766572735C7065726970686572616C5C737973636C6B5C63795F737973636C6B2E63A1
:4024C0000000000047656E6572617465645F536F757263655C50536F43365C70646C5C647269766572735C7065726970686572616C5C737973636C6B5C63795F73797363C9
:402500006C6B2E680000000047656E6572617465645F536F757263655C50536F43365C70646C5C647269766572735C7065726970686572616C5C737973696E745C63795FCC
:40254000737973696E742E630000000047656E6572617465645F536F757263655C50536F43365C70646C5C647269766572735C7065726970686572616C5C737973706D5C67
:4025800063795F737973706D2E6300000000204000002440000000400000000000002340000030400000314000009F40000022400000104002020202020202020210101DEB
:4025C000800017007500FF030602063604102000000000007FC0000000040000000000000019324B647D00804000080B100000000000FF012002001F00800004FF081018C4
:40260000001000140018001C4044484C50000000081000000800000004000000041000000012000004210000002100000016000040114002C41300138013A0132000000051
:402640001C0000000000214000002540000001400000344000002440000031400000324000001F410000234000001140010101010101010101101010800019005500F00051
:402680000501053B04101C01010000000FC000000004000001010101011D3A57789600082000101208000000001F00000010000F002000023F06080E00080009000A000BDB
:4026C00024282C3034000000100000009000000088000000080000008000000004F0000000F00000400200002005A000D00100018001A0012000000010000000000000003F
:402700000000001000000008C000000020270010C0000008400500003C060008100200000048E80100127A0000093D0000093D0000093D0004000000A00F00000000D007E8
:40274000E9000010C10000100000000010B50004400B27D0144B1A68146AB023D15ACA00531AE3181B68002BF4DA3E220F4B1A600F4A104B1A60104B0621A322D200995015
:402780000E4A98509B58084B1A68106AB023D15ACA00531AC31800225A60084B064AD358002BFADA10BDC04648080008040126401E1F000008012640000026401C05000015
:4027C00010B54378FF2B20D100F03AFA04000F4B1A683123D35C042B04D8C421FF310C4800F00EFA094B1A68116AB023D35A9B00CB18DB685A68116801230B43136013689E
:40280000DB07FCD4200000F013FA10BD48080008C0220010F0B585B001900291544B1A683123D35C002B04D1C421FF31514800F0E7F94F4B1B681E6AB4229A589719502203
:402840009B5C002B77D000F003FA050003283CD1474B1A683123D35C062B04D8C421FF31444800F0CDF9424B1968B023CB5A5A00D21853000A6A94466344B4228A58D31895
:402880001B68002B23DB002000F0CAF93A4B98421FD03A4B1A6900230021012000F0A8F9002803D0364C17E0013400E00024002000F0B6F9304B984202D0324B9C42F3D993
:4028C000304B9C4207D92E4C06E0002404E02C4C02E02B4C00E00024002C46D100F0B0F90390294B294AD358002B13DA234A0121300000F075F900280ED10298FFF726FFF0
:40290000019B002B0AD03B68002BFCDB00F060F9040004E01A4C02E0194C00E01C4C032D05D10121002000F073F90028F9D1039800F07EF919E000F083F905000F4A0121AE
:40294000300000F04DF9002809D1019B002B08D03B68002BFCDB00F03BF9040002E0084C00E00B4C280000F063F9200005B0F0BD48080008C022001001018800E807000855
:4029800005005200EF4902001C0500000000264001005000F0B54F464646C0B4824B1A685468B0235B055B78002B04D0B0235B055B78DBB200E02123212B67D1B023D15A2B
:4029C000CB005B1A116A8C46634419680029F5DADD6802212943D960B023D15ACB005B1A116A8C466344D968C9073ED5D9680904090C8C4684271168D559A846414409685C
:402A0000090A0904FF26360431400D0088261168894691598846C14449460968090A0906294365462943D9601168D359C9180A685E4B98461A4090252D012A430A605A4BD0
:402A400099461A6813689C46925962441368414619400B002B4313604B461A681568D15969180B689359EB181B684F4B1A68B021555AEB005B1B156AAC46634400255D60A9
:402A8000156A515ACA00531AEB185B68484A116904230B431361012801D030BF00E020BF414B1A68B023D15ACB005B1A116A8C46634419680029F3DAB02149054978002992
:402AC00004D0B02149054978C9B200E02121212932D1D968C90722D510688421525880180468324A1440DB681B0C1B02FF2109020B40234303602C4B19688823C8580B6899
:402B00009C46604403681A400D6AB023CC5AE1000B1BEB18DB681B0E1B021A430260224B1A68106AB023D15ACA00531AC318DA6802218A43DA6028E086235B00E358002B31
:402B400023D11C4807681C4BA321C9005E581B4A904615681A4A0260062058503E21424611600631174A9950164B134AD358002BFADA154A86235B00E2500E4B1F60A323A4
:402B8000DB000D4AD6500D4B1D60074B1A68106AB023D15ACA00531AC31800225A600CBC90469946F0BDC04648080008FF00FFFF00ED00E00801264000002640040126401C
:402BC0001E1F00001C050000AAAAAAAA0000000001B40248844601BC604700BF890A001001B40248844601BC604700BF550C001001B40248844601BC604700BF5110001086
:402C000001B40248844601BC604700BFD916001001B40248844601BC604700BFE10D001001B40248844601BC604700BF6D0E001001B40248844601BC604700BF63180010D1
:402C400001B40248844601BC604700BF5B18001001B40248844601BC604700BF390400100000000000000000000000000000000000000000000000000000000000000000AC
:402C80000000000000000000000000000000000000000000000000000000000000000000000000000000000000000000000000000000000000000000000000000000000014
:402CC00000000000000000000000000000000000000000000000000000000000000000000000000000000000000000000000000000000000000000000000000000000000D4
:402D00000000000000000000000000000000000000000000000000000000000000000000000000000000000000000000000000000000000000000000000000000000000093
:402D40000000000000000000000000000000000000000000000000000000000000000000000000000000000000000000000000000000000000000000000000000000000053
:402D80000000000000000000000000000000000000000000000000000000000000000000000000000000000000000000000000000000000000000000000000000000000013
:402DC00000000000000000000000000000000000000000000000000000000000000000000000000000000000000000000000000000000000000000000000000000000000D3
:020000041008E2
:4000000000780408EB0208100D0000005103081051030810510308105103081000000000000000000000000000000000A14D08104D03081000000000414E0810A54E08105A
:400040004D0308104D0308104D0308104D0308104D0308104D0308104D0308104D0308104D0308104D0308104D0308104D0308104D0308104D0308104D0308104D03081000
:400080004D0308104D0308104D0308104D0308104D0308104D0308104D0308104D0308104D0308104D0308104D0308104D0308104D0308104D0308104D0308104D030810C0
:4000C0004D0308104D0308104D0308104D0308104D0308104D0308104D0308104D0308104D0308104D0308104D0308104D0308104D0308104D0308104D0308104D03081080
:400100004D0308104D0308104D0308104D0308104D0308104D0308104D0308104D0308104D0308104D0308104D0308104D0308104D0308104D0308104D0308104D0308103F
:400140004D0308104D0308104D0308104D0308104D0308104D0308104D0308104D0308104D0308104D0308104D0308104D0308104D0308104D0308104D0308104D030810FF
:400180004D0308104D0308104D0308104D0308104D0308104D0308104D0308104D0308104D0308104D0308104D0308104D0308104D0308104D0308104D0308104D030810BF
:4001C0004D0308104D0308104D0308104D0308104D0308104D0308104D0308104D0308104D0308104D0308104D0308104D0308104D0308104D0308104D0308104D0308107F
:400200004D0308104D0308104D0308104D0308104D0308104D0308104D0308104D0308104D0308104D0308104D0308104D0308104D0308104D0308104D0308104D0308103E
:400240004D0308104D0308104D0308104D0308104D0308104D0308104D0308104D0308104D0308104D0308104D0308104D0308104D0308104D0308104D0308104D030810FE
:400280004D0308104D0308104D03081010B5054C237833B9044B13B10448AFF300800123237010BD646702080000000088720910084B10B51BB108490848AFF30080084885
:4002C000036803B910BD074B002BFBD0BDE81040184700BF00000000686702088872091034610208000000007047FFF7FDFF72B6104C114DAC4209DA21686268A368043B2B
:40030000A2BFC858D050FAE70C34F3E70B490C4A00209142BCBF41F8040BFAE709480A490860BFF34F8F00F0FBF900F0D5F900F071F8FEE78C720910A47209106467020849
:400340004C9903080040020808ED00E0FEE7FEE700B504207146084202D0EFF3098001E0EFF30880043003F047F8FEE708B5254B1B7813F0FF0F09D1224B01221A715A795E
:4003800012F0FF0F0CBF012200225A711D4B1B78DBB2012B02D101221A4B1A71194B1B78DBB2022B13D0174B1B78DBB2032B0ED0144B1B78DBB2052B09D0124B1B78DBB291
:4003C000042B04D00F4B1B78DBB2062B02D101220C4BDA70642002F0DBFF0B4B5A6910225A615B69094BB3F90030002B09DB5A0903F01F03012101FA03F36032044941F8BC
:40040000223008BDAC440308000032408CEA081000E100E000B583B062B6334C3349204602F07CFFB4F90030002B08DB5A0903F01F000121814060322D4840F82210002B3C
:4004400008DB590903F01F03012202FA03F3284A42F8213007F066F80226264B9E60802203F5C0639A600024234B1C704FF46B72224B1A6040F2AD32214B1A600125214BBF
:400480001D706F22204B1A704622204B1A706E221F4B1A7064221F4B1A6009221E4B1A601E4B1C705C709C70DC701D715D711C4B1C701C4B1C7004F015FE05F0D3FA019417
:4004C000009523464FF4FA721749184803F050FE0194009623464FF416721549154803F047FE03F077FEFEE78CEA08106D03081000E100E08000324059490308BC4403082E
:40050000B4440308B8440308C1440308A5440308C0440308A0440308A8440308AC44030858490308A644030810E708104110081020E70810650C081008B5012002F04CF9E7
:4005400008BD00BF704700BF5C4AD2F8803303F00F0303F1D00152F8212002F00702032A04D0042A05D092B9554914E0554A116811E003F1C002514951F8222002F01F0236
:40058000112A06D0132A04D04FF4FA4103E04E4901E04FF400418BBB484BD3F8902502F00100D3F88825C2F30172D3F8883513F0405F07D0414BD3F88835C3F30173012B65
:4005C00002D102E0012300E0002303B108B9032A46D13A48D0F88025C2F31103D0F88425C2F30C02D0F88005C0F300600130B1FBF2F202FB03F2B2FBF0F131E0012B2FD19C
:400600002E4BD3F8402602F00100D3F80026C2F30172D3F8003613F0405F07D0274BD3F80036C3F30173012B02D102E0012300E0002303B108B9032A12D12048D0F800260A
:4006400002F07F02D0F80036C3F30423D0F80006C0F3044002FB01F2B2FBF3F2B2FBF0F1164BD3F88033C3F3011321FA03F215494A601648D0F89030C3F307230133006933
:40068000000E0130B2FBF0F08860B2FBF3F3CB600B6103F5742202F23F220D48A0FB0202C2F387420A7503F2E7330A4AA2FB03239B098B61DB03CB61704700BF00002640EC
:4006C00000127A00F05F020800366E010000214083DE1B43D34D621008B50D4802F078FFFFF730FFFFF730FF00221146042001F03BFE084801F0CEFE074B1B6893F8513044
:4007000013B1064801F036FF01F0FCFC08BD00BF94EE08105C7F0208D095030828E7081008B502F0C6FE074AD2F8883043F47003C2F88830BFF34F8FBFF36F8F02F0BDFEAF
:4007400008BD00BF00ED00E0F8B506460F4601F0C5FB0546064C3B4632460146204601F05BFA41F2B062294620460DF027FBF8BD8067020810B404460068012305E054F8F6
:400780002320904200D2104601338B42F7DB5DF8044B704710B404460068012305E054F82320904200D9104601338B42F7DB5DF8044B70472DE9F8430746884615460120A9
:4007C00007F0F8FD29463846FFF7D4FF394CA4FB0036B60829463846FFF7DCFFA4FB0034A408DFF8FC902246334948460DF014FB4946324802F08EF8002110E057F82130EF
:400800002C4AA2FB0323C4EB9303321B02FB03F37200B3FBF2F32A4A22F811300131A942ECDB00231A4607E0254931F91300254921F8120001324344AB42F5DB01230522D2
:400840004FF482711F4808F0ABF87D2340F207120121084606F09EFFAF2340F207128121992006F097FF8522A021174808F086F8164807F0EBFD8F229B21154808F07EF89C
:40088000144B5B7913F0FF0F04D09D229B21124808F074F80F4B5B7913F0FF0F04D19D229B210E4808F06AF801210846FFF74CFFBDE8F883CDCCCCCC5CE7081000006640A5
:4008C000B8460308C444030864E708107014091078E70810AC44030880E708108CE70810F87E020830B59BB005460C4607F048FE2A4613490DA80DF08FFA2246114968465F
:400900000DF08AFA104807F0A1FD822203210DA808F034F882227D210C4808F02FF896220321684608F02AF896226421084808F025F801210846FFF707FF1BB030BD00BFCA
:4009400094E70810B0E7081038F20810C4E70810CCE7081010B5044607F012FE184807F075FD022007F0A2FD02228421154808F005F8154807F06AFD28220F21134807F02C
:40098000FDFF46220F21124807F0F8FF64220F21104807F0F3FF82220F210F4807F0EEFFA0220F210D4807F0E9FF0322A11C042007F0DCFB01210846FFF7C6FE10BD00BFA5
:4009C000D8290910D0E7081038F20810D8E70810F8E708101CE8081040E8081064E8081010B507F0CDFD134C204607F02FFD022007F05CFD142284210F4807F0BFFF0F4820
:400A000007F024FD46220A210D4807F0B7FF64220A210C4807F0B2FFA023E6227821072006F0B8FE204607F011FD01210846FFF78BFE10BD90FE081080E8081038F2081096
:400A400098E80810C8E8081010B507F099FD1A4807F0FCFC022007F029FD14228421174807F08CFF164807F0F1FC46220A21154807F084FF144807F0E9FC78234B2219462D
:400A8000052008F031FA022007F010FD0F4B1A780F4C104920460DF0BFF964220A21204607F06CFF64222D210B4807F067FF01210846FFF749FE10BDD8290910F8E8081084
:400AC00038F2081008E908107014091059490308F87E02085CE708102CE9081010B507F04FFD184807F0B2FC022007F0DFFC14228421154807F042FF144807F0A7FC46228A
:400B00000A21134807F03AFF6E220A21114807F035FF114807F09AFC104C114B1A78114920460DF079F95F227821204607F026FF5F22AF210C4807F021FF01210846FFF7A3
:400B400003FE10BD38F2081030E9081090FE081058E9081080E90810D8290910F87E0208C04403085CE7081094E9081010B507F007FD184807F06AFC022007F097FC1422BC
:400B80008421154807F0FAFE144807F05FFC46220A21134807F0F2FE6E220A21114807F0EDFE114807F052FC104C114B1A78114920460DF031F95F227821204607F0DEFEA9
:400BC0005F22AF210C4807F0D9FE01210846FFF7BBFD10BD90FE081030E9081038F208109CE90810C4E90810D8290910F87E0208A54403085CE7081094E9081010B507F0E2
:400C0000BFFC134C204607F021FC022007F04EFC142284210F4807F0B1FE0F4807F016FC46220A210D4807F0A9FE64220A210C4807F0A4FEA023E6227821072006F0AAFD39
:400C4000204607F003FC01210846FFF77DFD10BD90FE0810D4E9081038F2081098E80810C8E8081008B507F0BDFC142000F0C0FF012000F0C5FF07F083FC002007F0DCFBC5
:400C80006FF07F4007F0CEFB012007F093FB334807F0DCFB324B1B7913F0FF0F31D042216420FFF71FFE2E4B5B7913F0FF0F0FD02C4D2A6803212C48FFF77CFD2B4C2A68F2
:400CC0002B4920460DF0A8F821462A4801F022FE234B5B7913F0FF0F0FD1274D2A6803212648FFF767FD214C2A68214920460DF093F821461F4801F00DFE194B00221A703D
:400D00001A71174B5B78DBB2012B04D0144BDB78DBB2012B15D1124C012323702820184B1870FFF717FE6378DBB2012B01D1002262700B4BDB78DBB2012B02D10022084BBE
:400D4000DA70074B5B78DBB2022B25D10C4B1B78A02B17D128220A4B1A7016E038F20810AC440308BC4403088C420208307E02085CE7081000006640B44403083C51020825
:400D8000A64403081E33A04A13709F4B1878FFF7E1FD00229D4B5A709C4B5B78DBB2032B08D09B4B1B78012B04D0984B9B78DBB2032B3BD1FFF714FE944B5B78DBB2032B66
:400DC00011D10124934B1C70934807F03FFB82221921924807F0D2FD21462046FFF7B4FC00228A4B5A70894B9B78DBB2032B13D10024884B1C700222894B9A60864807F004
:400E000025FB82221921874807F0B8FD01210846FFF79AFC7D4B9C707D4B1B78012B05D102227A4B1A700022794B1A70774B5B78DBB2042B08D0754B9B78DBB2042B03D09E
:400E4000734B1B78022B1BD1FFF7FEFD6F4B5B78DBB2042B02D100226C4B5A706B4B9B78DBB2042B02D10022684B9A70684B1B78022B05D10322654B1A700022644B1A701E
:400E8000624B5B78DBB2052B08D0604B9B78DBB2052B03D05E4B1B78032B1BD1FFF71EFE5A4B5B78DBB2052B02D10022574B5A70564B9B78DBB2052B02D10022534B9A70C3
:400EC000534B1B78032B05D10422504B1A7000224F4B1A704D4B5B78DBB2062B08D04B4B9B78DBB2062B03D0494B1B78042B1BD1FFF73CFE454B5B78DBB2062B02D1002269
:400F0000424B5A70414B9B78DBB2062B02D100223E4B9A703E4B1B78042B05D105223B4B1A7000223A4B1A70384B5B78DBB2072B08D0364B9B78DBB2072B03D0344B1B78C7
:400F4000052B3BD1FFF75AFE304B5B78DBB2072B11D10124344B1C702F4807F077FA822219212E4807F00AFD21462046FFF7ECFB0022264B5A70254B9B78DBB2072B13D16A
:400F80000024294B1C708022284B9A60224807F05DFA82221921234807F0F0FC01210846FFF7D2FB194B9C70194B1B78052B05D10622164B1A700022154B1A70154B1B7868
:400FC0004BB11B4B1B781BB10222154B5A6002E00222134B9A60144B1B7883B1154B1B78154A1278934203D3144A1278934203D980220E4B5A6002E080220C4B9A604FF481
:40100000AF7003F02BFA45E6A6440308AC44030858490308B944030870140910F8E908108000324010EA0810A444030880063240B8440308C1440308A5440308C04403080B
:4010400008B504F06DF8002004F0D6FA002852D0614B1A6801321A601A68604C604920460CF0DAFE21465F4801F054FC5E4B1B7813F0FF0F02D101225B4B5A705A4B1B7806
:40108000DBB2012B02D10222574B5A70564B1B78DBB2022B02D10322534B5A70524B1B78DBB2032B07D1514A13780133DBB2137004224D4B5A704C4B1B78DBB2042B06D154
:4010C0004B4A1378013313700522474B5A70464B1B78DBB2052B06D1464A1378013313700622414B5A70404B1B78DBB2062B02D107223D4B5A70012004F07EFA002862D07D
:40110000354B1A68013A1A601A683B4C344920460CF082FE2146334801F0FCFB324B1B78DBB2012B1AD1354B1B78282B02D10121334A1170462B02D10221314A1170642BC7
:4011400002D103212E4A1170822B02D104212C4A1170A02B02D10522294B1A70224B1B78DBB2022B02D103221F4B9A701E4B1B78DBB2032B07D11D4A1378013BDBB213702D
:401180000422194B9A70184B1B78DBB2042B06D1174A1378013B13700522134B9A70124B1B78DBB2052B06D1124A1378013B137006220D4B9A700C4B1B78DBB2062B02D1A9
:4011C0000722094B9A7004F039FB04F04BFC4FF4AF7003F043F934E7A0440308947E02085CE7081000006640AC44030859490308C0440308A5440308307E0208A6440308F5
:40120000584903082DE9F04180460E4617460A4C08256560702000F06FFD404600F06CFDA5606560722000F067FD3946304600F0C7FDA560BDE8F0810006324000B583B05D
:4012400002AB03F8011D01221946FFF7DBFF03B05DF804FBF8B507460E46094C08256560702000F049FD384600F046FDA5606560732000F041FD304600F06EFDA560F8BD2D
:401280000006324038B50425084B5D60084C402363601023636000F0FFFC0822054B5A6065602023636000F0E1FC38BD00003240800232400006324010B5434C6F22002190
:4012C00020460CF0A1FD631C236704F14E03636704F12203A36700F0C9FC03E000F0D0FC032868D800F0AEFD0028F7D100F0CEFC00217220FFF7AEFF00F00F0002285CD101
:401300004021FFF79BFF00210F20FFF7A3FF10F0800F54D002210B20FFF790FF08222B490120FFF76FFFD1210720FFF787FF02210820FFF783FFC2210920FFF77FFF03212F
:401340000420FFF77BFF01210320FFF777FF00210320FFF773FF0A2002F01AF8002400E01C4601210520FFF769FF642002F010F803210520FFF762FF322002F009F80F21B0
:401380000520FFF75BFF322002F002F800210F20FFF760FF10F0400F05D040210220FFF74DFF234603E0631C9BB2042CD8D1032B07D9052010BD012010BD022010BD0320FB
:4013C00010BD002010BD00BFDC80020828EA081010F1090F0EDB10F1040F0EDB05280FDD0A2810DD0F2811DD142811DD282811DC5A2210E04FF496620DE04FF461720AE08D
:401400004FF4167207E04FF4A57204E0DC2202E0B42200E03C22034BA3F87C20A3F87E20704700BFDC8002082DE9F84F06460D46047828B1CA4B984205D10127002403E0E9
:401440000127FF2400E0002700F010FC4FF00008D0E1C8EBC80AC8EB0A1ADFF80C930AEB090B6F22002158460CF0CEFC0BF1010EBC4BC3F870E00AF1480048440630586754
:401480000AF1200AD14409F10209C3F878902022002397E10FB934780136032D00F29081DFE815F004006500C600270100EB030C14F0400F01D0C02100E080218CF8001038
:4014C00049B214F0100F02D04FF0300A01E04FF0200A4AEA01018CF8001014F0040F02D04FF00C0A01E04FF0080A4AEA01018CF8001014F0010F02D04FF0030A01E04FF0E3
:40150000020A4AEA01018CF800100EEB020C14F0800F01D0032100E002218CF8001049B214F0200F02D04FF00C0A01E04FF0080A4AEA01018CF8001014F0080F02D04FF032
:40154000300A01E04FF0200A4AEA01018CF80010013A92B214F0020F02D06FF03F0A01E06FF07F0A4AEA01018CF8001028E100EB030C14F0400F01D0802100E040218CF8EF
:40158000001049B214F0100F02D04FF0200A01E04FF0100A4AEA01018CF8001014F0040F02D04FF0080A01E04FF0040A4AEA01018CF8001014F0010F02D04FF0020A01E07A
:4015C0004FF0010A4AEA01018CF800100EEB020C14F0800F01D0022100E001218CF8001049B214F0200F02D04FF0080A01E04FF0040A4AEA01018CF8001014F0080F02D07D
:401600004FF0200A01E04FF0100A4AEA01018CF80010013A92B214F0020F02D06FF07F0A01E04FF0400A4AEA01018CF80010C7E000EB030C14F0400F01D0C02100E04021D4
:401640008CF8001049B214F0100F02D04FF0300A01E04FF0100A4AEA01018CF8001014F0040F02D04FF00C0A01E04FF0040A4AEA01018CF8001014F0010F02D04FF0030A01
:4016800001E04FF0010A4AEA01018CF800100EEB020C14F0800F01D0032100E001218CF8001049B214F0200F02D04FF00C0A01E04FF0040A4AEA01018CF8001014F0080FA8
:4016C00002D04FF0300A01E04FF0100A4AEA01018CF80010013A92B214F0020F02D06FF03F0A01E04FF0400A4AEA01018CF8001066E000EB030C14F0400F01D0802100E074
:40170000C0218CF8001049B214F0100F02D04FF0200A01E04FF0300A4AEA01018CF8001014F0040F02D04FF0080A01E04FF00C0A4AEA01018CF8001014F0010F02D04FF058
:40174000020A01E04FF0030A4AEA01018CF800100EEB020C14F0800F08D0022107E000BFFFFF0F10DC8002085C49030803218CF8001049B214F0200F02D04FF0080A01E00E
:401780004FF00C0A4AEA01018CF8001014F0080F02D04FF0200A01E04FF0300A4AEA01018CF80010013A92B214F0020F02D06FF07F0A01E06FF03F0A4AEA01018CF80010EF
:4017C00001339BB2202B7FF665AEC8F1AF031BB299101A4A134003D5013B63F003030133174A02FA83F31B7A09F8013008F101081FFA88F8B8F1AF0F7FF62BAE00240FE05F
:40180000C4EBC403C4EB03136F220E4919440A20FFF7F8FC07210220FFF710FD0134A4B2AF2CEDD9084BB3F87C4000F029FA8442E4D800F02BFABDE8F88F00BF03000080C9
:4018400028EA08105C490308DC8002082DE9F04706460D4600F00AFAD2210920FFF7EEFC0024C6E0C4EBC407C4EB0717DFF8008207EB08096F22002148460CF0C5FA09F1EA
:40188000010C784BC3F870C007F1480EC6440EF1060EC3F874E02037B84408F10208C3F87880202000218EE0771C32786E1C95F800900EEB010582EA090212F0400F04D09C
:4018C00019F0400F03D0802302E0402300E0C0232B705BB212F0100F05D019F0100F05D04FF0200A04E04FF0100A01E04FF0300A4AEA03032B7012F0040F05D019F0040F9C
:4019000005D04FF0080A04E04FF0040A01E04FF00C0A4AEA03032B7012F0010F05D019F0010F05D04FF0020A04E04FF0010A01E04FF0030A4AEA03032B700CEB000512F0F7
:40194000800F04D019F0800F03D0022302E0012300E003232B705BB212F0200F05D019F0200F05D04FF0080A04E04FF0040A01E04FF00C0A4AEA03032B7012F0080F05D032
:4019800019F0080F05D04FF0200A04E04FF0100A01E04FF0300A4AEA03032B70013880B212F0020F05D019F0020F04D06FF07F0203E0402201E06FF03F0213432B70013153
:4019C00089B235463E4620297FF66EAFC4F1AF031BB29910244A134003D5013B63F003030133224A02FA83F31B7A08F801300134A4B2AF2C7FF636AF002421E0C4EBC40592
:401A0000C4EB05151A4B1D446F2229460A20FFF7F9FB07210220FFF711FCC4F1AF0343F38D032B44002283F822206F2229460A20FFF7E8FB07210220FFF700FC0134A4B271
:401A4000AF2CDBD9074BB3F87E4000F019F98442D2D800F01BF9C2210920FFF7EFFBBDE8F08700BFDC8002080300008028EA08105C490308002307E01349086F5522C254B2
:401A8000496FCA5401339BB2202BF5D970B5002416E0A6080C4DAA6F04F003030B490B441B7A93556F2229460A20FFF7ABFB07210220FFF7C3FBAB6F00229A550134A4B2C3
:401AC000AF2CE6D970BD00BFDC80020828EA081008B5002304E00021094AD1540133DBB2152BF8D900210420FFF7A8FB6F2204490A20FFF787FB07210220FFF79FFB08BDA4
:401B0000DC80020838B50E4C1023A360142001F03FFC00F0D9F808220A4B9A604023A3600425A5600A2001F033FC65600A2001F02FFCA5600A2001F02BFCFFF7BDFB38BD55
:401B4000800232400006324038B5FFF793FFFFF7BFFF1E2001F01CFC234C40256560322001F016FCA56000210F20FFF773FB10F0400F36D000210B20FFF760FB01210320AB
:401B8000FFF75CFB03210520FFF758FB01210520FFF754FB322001F0FBFB80210420FFF74DFB00210520FFF749FB01210720FFF745FB1E2001F0ECFB00F094F810236360F7
:401BC0006560142001F0E4FB0822084B5A60042363602025A5601E2001F0DAFB6560002038BD042038BD00BF800232400006324010B50446FFF746FB2046FFF7E9FB10BD3C
:401C000008B510B1FFF77EFF01E0FFF79DFF08B9012008BD002008BDF8B507460E4614461D4613B10120FFF7EBFF24B931463846FFF70CFE15E0631EDBB2012B11D80021D9
:401C40003846FFF7F1FB012C07D101213846FFF7EBFB02213046FFF7E7FB03213046FFF7E3FB15B10020FFF7CBFFF8BD08B50022024BC3F8082100F069F908BD00003840AA
:401C8000014BD3F808017047000038400122014B5A6070470000384010B5074C074A0849204600F04FFE236843F0004323600822044B9A6010BD00BF00006740AC950308AA
:401CC00094EA0810000632400822044B9A60044A136843F000431360704700BF000632400000674008B50249024800F05FFF08BDAC9503080000674008B50146154800F073
:401D0000ABFD144BD3F8C03F13F0040FF9D0114BD3F8042242F48032C3F80422D3F8042222F48032C3F80422D3F80422D3F8042342F48032C3F80423D3F8042322F48032DC
:401D4000C3F80423D3F804230422C3F8C02FD3F8C03F08BD0000674008B50146174800F07BFD164BD3F8C03F13F0040FF9D0134BD3F84003D3F8042242F48032C3F804228E
:401D8000D3F8042222F48032C3F80422D3F80422D3F8042342F48032C3F80423D3F8042322F48032C3F80423D3F804230422C3F8C02FD3F8C03FC0B208BD00BF0000674017
:401DC00038B50C46054600B121B940F2E6511B4801F002FB22462946194800F083FD184AD2F80832C3F30803D2F80822C2F3C032D342F4D1124BD3F8042242F48032C3F8DF
:401E00000422D3F8042222F48032C3F80422D3F80422D3F8042342F48032C3F80423D3F8042322F48032C3F80423D3F804230422C3F8C02FD3F8C03F204638BD34EA08107C
:401E400000006740044B1B6913F0080F01D0012070470020704700BF8002324010B582B002AC012344F8043D00231A461449154806F0D6FC214608F0EAF908F049FE60B1BE
:401E80004FF48472B021002008F027FF4FF48472B021002008F04DFF0BE0B0224FF48471002008F01AFFB0224FF48471002008F040FF0549002008F027FF02B010BD00BF1B
:401EC000DC6F09101070091010600208012901D1002070474FF0FF30704700BF004870475C81020808B5012001F0B4FD014B186008BD00BF0C98020808B500231A461946B9
:401F00000248006801F0D2FC08BD00BF0C98020808B54FF0FF31024B186801F0C5FE08BD0C98020808B502F0F3FB08BD704700BF08B54FF40041034805F07CFD024806F0CC
:401F4000E7FA08BD109802085468091008B5084B1B783BB9074A0021074801F0B1FA0122034B1A70044B01229A609A6108BD00BF10180308C8EA0810000038401F4B9842A1
:401F80002DD00CD840282ED003D8E8B1102828D02FE0802829D0B0F5807F28D029E0184B984228D006D8B0F1204F0DD0154B984212D01EE0144B98420AD00133984209D0CD
:401FC000023B984215D101E0002070470F4870470F4870470F4870474FF4A0007047074870470D4870470D4870470D487047034870470C4870474FF4A4007047060052003B
:40200000010000F0090000A0040000F0010052000200520003005200010050000200500005005200FF00520038B5124B1B6893F83130012B04D840F2C3110F4801F0CCF9F7
:402040000C4B1D682A6AB5F8B03013442C46D5F8B420D358002B0BDB084B1868FFF78EFF6B6801229A6063689B68002BFBD138BD034838BDD095030814EB081014180308BF
:40208000020050001A4B186128B102230370FF23437000234380174B1B6893F850202AB300B583B0B3F93830ADF80030002301931149684601F032F9BDF90030002B08DB67
:4020C000590903F01F03012202FA03F30B4A42F82130084B1B6893F8513023B102220849012000F0F3FA03B05DF804FB704700BF14180308D0950308A561020800E100E056
:402100005D62020808B50248FFF7BCFF08BD00BF281803082DE9F04104460D46174698469DF81860072903D9D921354801F054F937F00F0303D0DA21314801F04DF9B8F102
:40214000010F03D9DB212E4801F046F936F01F0303D0DC212A4801F03FF922680123AB4022EA030308F0010808FA05F843EA08032360244B1B6893F87D100B59A8000F2271
:40218000824023EA020207F00F0303FA00F717430F51072D04D94FF422711B4801F01CF936F01F0304D040F28921174801F014F9144B1B689A69A41AE4095B692401191945
:4021C000032D0DD81959ED001F22AA4021EA020206F01F0606FA05F515431D51BDE8F081043D4A68ED001F23AB4022EA030306F01F0606FA05F51D434D60BDE8F08100BF2A
:4022000054EB0810D095030894EB081038B50B4B1B68D3F8B4301B58002B0DDA0D4604460B0C1B0423B140F2D521054801F0D4F8A9B26160002038BD024838BDD09503088D
:40224000D4EB081001008A0038B50368002B01DA002300E0094B73B90D460446C2600B0C1B0423B140F2BB21054801F0B5F8A9B2A160002038BD014838BD00BF01008A0060
:40228000D4EB081038B504460D4619B99921084801F0A2F8074B1B68D3F8B4301B59002B03DAE3682B60002038BD034838BD00BF14EC0810D095030801008A00254B1B6866
:4022C00093F8313083423AD900293AD00B6813F01F0F38D170B50D4604461E4B1B6893F83130984204D340F2C3111B4801F074F8184B1B68186AB3F8B03004FB0304174ECB
:4023000034602A68D208002168680BF07DFD00212046FFF77BFF346825B940F293310E4801F05AF82A4600212046FFF78DFF60B900210A4B1868FFF769FF40B970BD0848DB
:4023400070470748704706487047064870BD054870BD00BFD0950308D4EB08102C18030803018A0001018A0010B504461346B2B9A9B9124B1B6893F83130984204D340F253
:40238000C3110F4801F028F80C4B1B681A6AB3F8B03004FB03240B4B1C60002010BD43B149B1084A51609360111D2046FFF786FF10BD054810BD044810BD00BFD0950308F1
:4023C000D4EB08102C18030803018A002DE9F0411B4B1B68DC68236883422CD90D464609A0EB4610012303FA00F819B901F061F8074600E00027124B18680368002B01DA06
:40240000002300E00F4B83B9626852F8263018EA030F05D023EA080342F82630002400E0094C0021FFF7F2FE00E0084C25B9384601F043F800E0064C2046BDE8F08100BF7F
:402440002C18030801008A00020188000301880004018A000B4B1B68DB681A6882420CD94109A0EB4110012202FA00F05B6853F82130184203D00448704704487047044882
:40248000704700BF2C1803080101880004018A0000018800024B1B680BB9014B18607047381803082DE9F8430446884691461D46089F2C4B1B681BB9B5212B4800F08CFF6F
:4024C000284B1B682C2000FB04F01C18EEB21E50C5F3072363602D0CA560244B1B6893F831309E4204D340F2C311214800F074FF1E4B1B68196AB3F8B02006FB0216266195
:40250000666893F832309E4204D340F2DF11184800F062FF154B1B681D6A803605EB46156561A668330C1B0423B14FF4FF71104800F052FF330C1B0423B140F2FF110C48D1
:4025400000F04AFFB3B243EA0646AE60C4F81C90C4F820800023A36117B1B7F90030A381BDE8F8833818030854EC0810D0950308D4EB0810F0B58FB0044618B95221274884
:4025800000F02AFFA369072B03D95621234800F023FFE36A1BB95821204800F01DFF236B1BB959211D4800F017FF07AD04F114060FCE0FC537682F6002AD26460FCE0FC531
:4025C00033682B60164B1B68B3F93620079B1344ADF83030089B0D93A26AE16A0CAD00953B460A98FFF75EFF00210091069B0A460598FFF757FF216B284600F08FFEBDF9BA
:402600003030002B08DB590903F01F03012202FA03F3044A42F821300FB0F0BD54EC0810D095030800E100E0F8B506460F461D4614461AB9FD211F4800F0CEFE1E4B1B68C7
:402640001BB9FE211B4800F0C7FE1B4B1B682C2101FB063001FB07314B68012202FA03F31B04466802FA06F60269EAB18F69EFB91268002A01DA002200E0104AC2B9228880
:40268000134323600369DC6001238B614D620469330C1B0423B140F2BB21094800F09CFEB2B2A2600020F8BD0648F8BD0648F8BD0548F8BD54EC08103818030801008A00D1
:4026C000D4EB081004028A0007028A00F8B505460F4616460E4B1B6823B94FF4AF710D4800F07AFE0A4B1B682C2404FB0534236A23B94FF4B171074800F06EFEE369B34245
:4027000004D9236A43F826700020F8BD0248F8BD3818030854EC08100A028A0070B582B000230193044620B940F2D111284800F053FE236923B94FF4E971254800F04CFE9F
:40274000636923B940F2D311214800F045FE236A23B94FF4EA711E4800F03EFE6369DD682A0C20D012041A601B682069194B1B68D3F8B430C358002B15DA01A9FFF782FDA9
:4027800060B9019803681E0CDBB2E269934206D2226A52F8233013B1984700E0002631462069FFF733FDADB275B16369ADB21D601B68636A1BB198470023636202E0A36A56
:4027C00003B198470023A36163691B6802B070BD54EC0810D095030810B50446074B1B6823B940F2B111064800F0F6FD034B1B682C2000FB0430FFF791FF10BD381803084A
:4028000054EC081010B4D0F8003303F00F03072B06D900230DE0D0F84043CC54013300E000239342F7D306E0D0F8404321F8134001339342F8D35DF8044B704710B514462F
:40284000D0F80833C3F308039A4200D31C462246FFF7D8FF204610BD036813F4006F01D0802200E04022D0F80832C3F30803934203D0C0F84012012070470020704700BFA2
:4028800010B4D0F8003203F00F03072B06D900230DE0CC5CC0F84042013300E000239342F7D306E031F81340C0F8404201339342F8D35DF8044B704710B51446036813F4A0
:4028C000006F01D0802200E04022D0F80832C3F30803D31AA34200D81C462246FFF7D0FF204610BDF8B507460D461446D0F8006206F00F060BE0224629463846FFF7DCFF98
:40290000072E01D9430000E003461D44241A002CF1D1F8BD30B4036813F4006F01D0802200E04022002408E0D0F80832C3F308039A42F9D0C0F8405201340D5D002DF3D112
:4029400030BC7047002800F02481F8B50546002900F0218117460C460B78012B03D93F218F4800F039FD6378012B07D9052B05D0022B03D040218A4800F02EFDA378032B2A
:4029800003D94121864800F027FD2378012B07D16368023B0E2B03D94321814800F01CFDA36933F00F0303D044217D4800F014FDA368043B0C2B03D94521794800F00CFD49
:4029C000E368043B0C2B03D94621754800F004FD6378022B07D0A268E3689A4203D047216F4800F0F9FC636A33F06D0303D049216B4800F0F1FCE36A33F0730303D04A21ED
:402A0000674800F0E9FC236B33F4206303D04B21634800F0E1FC6378A678052B07D8DFE803F0060305060603022600E00026A368082B04D8E368082B03D9002302E000237A
:402A400000E0012313B14FF4006200E00022237F13B14FF4807300E000231A436368013B03F00F03134343F080732B60226A2B6813F4006F01D0802300E040239A4203D3DA
:402A80005821474800F0A8FCA26A2B6813F4006F01D0802300E040239A4203D35921404800F09AFC237D0BB9012100E000216278052A01D1022300E000230B43E17C09B185
:402AC000102100E000210B43617C09B1202100E000210B432178012902D14FF0004100E000210B43B60006F00C063343A169090201F470610B43120602F0407213432B62CE
:402B0000237C13B14FF4807200E00022A37C13B14FF4007300E000231A43A368013B03F00F031343C5F8003394F82030C5F80433237C13B14FF4807200E00022E368013B7F
:402B400003F00F031343C5F8003294F82830C5F80432636A03F06D03C5F8C83FE36A03F07303C5F8883F236B03F40073C5F8003F236B03F40063C5F8403F0023C5F8C83E08
:402B80005FB118463B60BB61FB60FB61054B3B62F8BD054870470448F8BD0020F8BD00BFD8EC0810EFCDAB000140AA00036823F00043036019B100220A60CA608A61036AD4
:402BC000002B04DB0023C0F8C83FC0F8883F70472DE9F84305460C46036813F4006F02D04FF0800801E04FF04008D5F8007207F00F07A26A012A19D9D4F82490E262561E36
:402C0000B9F1000F00D026B940F27351254800F0E3FB324649462846FFF74EFEA36A1B1AA362072F00D9400048446062D5F80832C3F30803984533D0A36A012B30D100235B
:402C4000A362072F02D8636A1E7801E0636A1E8800F02FFCC5F840624FF40073C5F8803FD5F8803F00F029FCD5F8883F23F4007222F0010242F4007623F4EE6323F00303DC
:402C800023B140F22A41084800F0A6FBC5F8886F236843F002032360236B0BB101209847BDE8F88318ED081094EC08102DE9F04105460C46036813F4006F01D0802600E08D
:402CC00040267608A769D4F81C8017B1B8F1000F04D14FF49961314800F07EFB424639462846FFF7ABFD236A03442362E3691B1AE36173BBA368FBB1E3689E4201D8013EAB
:402D000000E05E1E2B6813F4006F01D0802300E040239E4204D34FF42071214800F05CFBD5F8043323F0FF03F6B21E43C5F804630123C5F8C83F02E00023C5F8C83F63687A
:402D400023F001036360236B33B304209847BDE8F081A169D5F8002302F00F02072A00D940000844A0619E4216D95C1E2B6813F4006F01D0802300E040239C4204D34FF457
:402D80002071074800F028FBD5F8043323F0FF02E3B21343C5F80433BDE8F08118ED081094EC0810002800F0A48170B50546002900F0A18116460C460B78022B03D93F21DC
:402DC000A24800F009FB637B023BDBB2062B03D940219E4800F000FBA37B3BB1022B05D0032B03D04121994800F0F6FA94F82130012B03D94221954800F0EEFA94F82830FD
:402E0000012B03D94321914800F0E6FA2378012B06D86368083B082B94BF0023012307E0A37F2BB16368013B062B94BF002301231BB14521854800F0CFFAA368053B042B14
:402E400003D94621814800F0C7FA6369FF2B03D947217E4800F0C0FAA369FF2B03D948217A4800F0B9FAA37C6BB1237833B9A368092B05D1A37B2BB1012304E0012302E02C
:402E8000012300E000231BB14A21704800F0A4FA636B23F4366323F00D031BB14C216B4800F09AFAE36B23F4EE6323F003031BB14D21664800F090FA2378022B01D1A37F70
:402EC00013B16268013A00E00022237F13B14FF4803100E00021A368082B02D84FF4006300E000230B4302F00F02134343F000732B60226B2B6813F4006F01D0802300E029
:402F000040239A4203D36221504800F065FAA26B2B6813F4006F01D0802300E040239A4203D36321494800F057FA626A2B6813F4006F01D0802300E040239A4203D364217A
:402F4000424800F049FA23781B0603F040732B64637F0BB1402200E00022A37C13B14FF4806300E000231343227C12B14FF4807200E000221343627C12B14FF4007200E01B
:402F800000221A43E36A013B1B0403F470231343627B013A02F007021343A27B120102F030021343AB64237B13B14FF4807200E00022E37B23B92378022B03D1012302E073
:402FC000012300E0002313B14FF4007300E000231A43A368013B03F00F031343C5F80033227DA3691B0403F47F031343C5F81033E26AD5F8003303F00F0303339A4201D36E
:40300000102A03D97A21114800F0E6F9E37F23B12378012B03D0002302E0002300E0012313B14FF4807200E00022637B013B03F007031A43A37B1B0103F0300313436B64C7
:40304000237B2BB14FF4807203E000BF58ED08100022A368013B03F00F0313432278012A02D14FF4803200E000221343C5F8003294F83030C5F8043394F8203013B14FF04B
:40308000007200E0002294F82130012B02D14FF0807300E00023134394F82820012A02D14FF4803200E00022134394F8242013432B6594F83830C5F80432636B23F492639F
:4030C00023F002031B051B0DC5F8C83FE36B23F08C035B055B0DC5F8883F76B1002070603060B060F0603062F0623063044B736370BD04487047034870BD002070BD00BF19
:40310000EFCDAB000160AA000B694A69934202D34869181A7047CA694869101A184470472DE9F04107460D46036813F4006F02D04FF0800801E04FF040084FEA5808D7F860
:403140000863C6F308062C6926E00134EB689C4200D100246B699C420FD12B6B0BB1082098476B699C4208D10023C7F8C83F0CB1013C13E0EC68013C10E0D7F84023D7F859
:40318000003303F00F03072B02D8AB681A5502E0AB6823F81420013E002ED6D12C61EC6829463846FFF7B0FF201A804519D908B1441E00E000243B6813F4006F01D08023E1
:4031C00000E040239C4204D34FF42071064800F003F9D7F8040320F0FF03E0B21843C7F80403BDE8F08100BF94EC081038B504460D46D0F8003E13F0080F35D0D0F8CC3F3F
:4032000013F448730AD04A681A434A60C0F8C03FD0F8C03F0B6B0BB110209847D4F8CC3F13F4006F09D06B6843F400636B604FF40063C4F8C03FD4F8C03FD4F8CC3F13F016
:40324000010F11D0EB6923B129462046FFF72EFD05E0AB681BB129462046FFF761FF0123C4F8C03FD4F8C03FD4F8003E13F0040F2ED0D4F88C3F13F4A0630AD02A681A431E
:403280002A60C4F8803FD4F8803F2B6B0BB120209847D4F88C3F13F0010F08D029462046FFF796FC0123C4F8803FD4F8803FD4F88C3F13F4007F0BD00022C4F8882F2B68E4
:4032C00023F001032B60EA622B6B0BB10220984738BD00BF38B50D4B9A680D4B9A420FD10D46044621B940F237110A4800F074F804F11003064A52F8230042F8235038BD78
:403300001030054B53F8200038BD00BF00ED00E00040020898ED08100000081048B338B504460D464368072B03D93221134800F053F8B4F900306268002B08DB5201D2B25F
:4033400003F1604303F5614383F8002305E003F00F035201D2B20A49CA540A4B9A680A4B9A4208D12946B4F90000FFF7B3FF002038BD06487047002038BD00BF98ED08109A
:4033800014ED00E000ED00E0004002080100560010B5044605E0084B186800F081F8A4F50044B4F5004FF6D8044B186800FB04F000F076F810BD00BF0C600208086002085B
:4033C00008B5034B1B7800FB03F000F069F808BD0460020801BEFEE738B50D46044C1822014620460AF03CFDA5610020FFF7F2FFD0660208FEE700BF08B50268254BDA61AC
:4034000042681A6282685A62C2689A620269DA6242691A6382695A63C2699A631E4A916AD963D16A1964516A5964516B9964926BDA64F1EE103A13F0900F27D0026A154BAA
:403440001A65426A5A65826A9A65C26ADA65026B1A66426B5A66826B9A66C26BDA66026C1A67426C5A67826C9A67C26CDA67026DC3F88020426DC3F88420826DC3F8882072
:40348000C26DC3F88C20026EC3F89020FFF7B2FF08BD00BFD066020800ED00E0000000000230800803D001300238FCD100BF00BF7047EFF3108072B6704780F31088704756
:4034C00000287DD00346002A7CD070B45068000280B29568AD0405F480252843D468240404F4403404431069000600F0E0602043147F0CB1012400E0002420430C1DA401FE
:403500001851D06828B903EB81100024C0F808410CE0012805D1146803EB8110C0F8084104E003EB81100124C0F80841106938B9546903EB8110C0F80C419469C0F8104144
:40354000146803EB8110C0F81441906CB0F1FF3F17D0946A04F00F04166B360206F470663443956B2D0405F470252543146C2403A4B22C430001C0B2204303EB8114C4F8D4
:403580002001506A00F00300D66A360106F030063043556B2D0205F440752843D46BA401E4B20443506C800000F00C00204303EB8113C3F82401126AC3F83821002003E0CE
:4035C000024870470148704770BC70470100B600014B1860704700BFD095030800F1080343604FF0FF328260C360036100230360704700BF00230361704700BF43684B60BF
:403600009A688A609A68516099600861036801330360704730B40D68B5F1FF3F01D1026907E000F1080200E01A4653681C68A542FAD253684B6099608A6051600861036874
:403640000133036030BC704703694268816891608268416851605A68904201D182685A60002202611A68013A1A601868704700BF436A23B1036B1868C0F107007047002022
:40368000704700BF10B5044601F09CFBA26BE36B9A4201D1012400E0002401F0B5FB204610BD00BF10B5044601F08CFBA36B0BB9012400E0002401F0A7FB204610BD00BF31
:4036C00070B504461646856B026C3AB9036843BB406801F087F80023636029E06EB980680AF06CFBA268236C1344A3606268934219D32368A36000201AE0C0680AF05EFB2D
:40370000236C5B42E2681A44E26021688A4202D262681344E360022E07D145B1013D002006E0002004E0002002E0002000E000200135A56370BD00BF026C72B110B50346B5
:40374000C4681444C4604068844201D31868D8600846D9680AF032FB10BD704738B5054601F030FB95F8454064B20AE06B6A53B105F1240000F036FF08B100F0C1FF013C49
:4037800064B2002CF2DCFF2385F8453001F03CFB01F018FB95F8444064B20AE02B6953B105F1100000F01EFF08B100F0A9FF013C64B2002CF2DCFF2385F8443001F024FB3C
:4037C00038BD00BF38B540B94FF03F0383F31188BFF36F8FBFF34F8FFEE704460D4601F0F1FA2168E26B236C03FB021060600020A063A160013A02FB0313E360FF2384F879
:40380000443084F845307DB92369ABB104F1100000F0E8FE80B14FF08052094B1A60BFF34F8FBFF36F8F07E004F11000FFF7D6FE04F12400FFF7D2FE01F0E6FA012038BD5E
:4038400004ED00E010B5029B0C4609B91B6000E01A60D8631C6401211846FFF7B3FF10BD40B94FF03F0383F31188BFF36F8FBFF34F8FFEE7F0B583B0034611B101FB00F0FF
:4038800000E000201D4617460C46483001F0DCFB064638B100903B4600F1480221462846FFF7D0FF304603B0F0BD00BFF0B585B0019240B94FF03F0383F31188BFF36F8F60
:4038C000BFF34F8FFEE7044619B9026C1AB9012202E0012200E0002242B94FF03F0383F31188BFF36F8FBFF34F8FFEE7022B03D1E26B012A02D102E0012200E0002242B9CE
:403900004FF03F0383F31188BFF36F8FBFF34F8FFEE71D460E4600F001FF18B9019B1BB9012302E0012300E0002343B94FF03F0383F31188BFF36F8FBFF34F8FFEE70027E5
:4039400001F040FAA26BE36B9A4201D3022D21D12A4631462046FFF7B3FE636A6BB104F1240000F03FFE88B14FF08052324B1A60BFF34F8FBFF36F8F08E038B14FF080526A
:403980002D4B1A60BFF34F8FBFF36F8F01F03CFA01204EE0019B1BB901F036FA002048E01FB902A800F062FE012701F02DFA00F04FFC01F007FA94F844305BB2B3F1FF3F58
:4039C00002D1002384F8443094F845305BB2B3F1FF3F02D1002384F8453001F015FA01A902A800F04DFEF0B92046FFF74BFEA0B1019904F1100000F0BDFD2046FFF7AEFE8B
:403A000000F0B4FC00289BD14FF080520A4B1A60BFF34F8FBFF36F8F92E72046FFF79EFE00F0A4FC8CE72046FFF798FE00F09EFC002005B0F0BD00BF04ED00E048B108B57A
:403A4000002141600160C1600B460A46FFF72EFF08BD704710B5024600210120FFF700FF0446FFF7EBFF204610BD00BF2DE9F84340B94FF03F0383F31188BFF36F8FBFF326
:403A80004F8FFEE7044619B9006C18B9012002E0012000E0002040B94FF03F0383F31188BFF36F8FBFF34F8FFEE7022B03D1E06B012802D102E0012000E0002040B94FF095
:403AC0003F0383F31188BFF36F8FBFF34F8FFEE71F469046894601F079FAEFF311864FF03F0383F31188BFF36F8FBFF34F8FA26BE36B9A4201D3022F1ED194F845506DB22E
:403B00003A4649462046FFF7DBFDB5F1FF3F0DD1636A9BB104F1240000F064FD80B1B8F1000F0FD00120C8F800000CE06B1C5BB284F84530012006E0002004E0012002E0D5
:403B4000012000E0012086F31188BDE8F88300BFF0B585B0019240B94FF03F0383F31188BFF36F8FBFF34F8FFEE7044619B9036C1BB9012302E0012300E0002343B94FF050
:403B80003F0383F31188BFF36F8FBFF34F8FFEE70E4600F0C3FD18B9019B1BB9012302E0012300E0002343B94FF03F0383F31188BFF36F8FBFF34F8FFEE7002701F002F959
:403BC000A56BC5B131462046FFF7B6FD013DA563236963B104F1100000F004FD38B14FF08052304B1A60BFF34F8FBFF36F8F01F00BF9012053E0019B1BB901F005F90020E6
:403C00004DE01FB902A800F031FD012701F0FCF800F01EFB01F0D6F894F844305BB2B3F1FF3F02D1002384F8443094F845305BB2B3F1FF3F02D1002384F8453001F0E4F869
:403C400001A902A800F01CFDF0B92046FFF72AFDA0B1019904F1240000F08CFC2046FFF77DFD00F083FB0028A8D14FF080520D4B1A60BFF34F8FBFF36F8F9FE72046FFF755
:403C80006DFD00F073FB99E72046FFF767FD00F06DFB2046FFF706FD00288FD0002005B0F0BD00BF04ED00E070B584B0019140B94FF03F0383F31188BFF36F8FBFF34F8FF8
:403CC000FEE70446036C43B14FF03F0383F31188BFF36F8FBFF34F8FFEE700F01FFD18B9019B1BB9012302E0012300E0002343B94FF03F0383F31188BFF36F8FBFF34F8F37
:403D0000FEE700252E4601F05DF8A36BCBB1013BA363236813B900F005FE6060236963B104F1100000F05EFC38B14FF08052414B1A60BFF34F8FBFF36F8F01F065F801204B
:403D400076E0019B6BB945B14FF03F0383F31188BFF36F8FBFF34F8FFEE701F055F8002066E01EB902A800F081FC012601F04CF800F06EFA01F026F894F844305BB2B3F17C
:403D8000FF3F02D1002384F8443094F845305BB2B3F1FF3F02D1002384F8453001F034F801A902A800F06CFC40BB2046FFF77AFCF0B123683BB901F005F8606800F0BEFCF2
:403DC000054601F021F8019904F1240000F0D2FB2046FFF7C3FC00F0C9FA002893D14FF08052144B1A60BFF34F8FBFF36F8F8AE72046FFF7B3FC00F0B9FA84E72046FFF794
:403E0000ADFC00F0B3FA2046FFF74CFC00283FF47AAF65B100F0D6FF2046FFF729FC0146606800F029FD00F0EFFF002000E0002004B070BD04ED00E000230BE0074A52F83A
:403E4000332032B9054A42F8331002EBC303586070470133092BF1D9704700BFD495030870B504460D46164600F0ACFF94F844305BB2B3F1FF3F02D1002384F8443094F8E0
:403E800045305BB2B3F1FF3F02D1002384F8453000F0BAFFA36B2BB93246294604F1240000F082FB2046FFF759FC70BD094B9B6A1B680BB9012300E0002323B14FF0FF32C6
:403EC000044BDA627047034B9A6AD268D2685268DA6270477818030810B50446006B01F0E3F8204601F0E0F810BD00BF2DE9F04780460D4616469946DDF820A0099F0A9CED
:403F00009200A521206B09F07FFF236B06F18042013A03EB820626F00706002306E0E95CE21882F83410EA5C12B101330F2BF6D9002384F84330BAF1060F01D94FF0060AC5
:403F4000C4F82CA0C4F844A00025A564201DFFF751FB04F11800FFF74DFB2461CAF10703A36164622B4606E003F1120204EB8202002151600133042BF6D90023236684F80F
:403F800064304A464146304600F0EEFE206007B13C60BDE8F08700BF70B5002407E004EB8402930010481844FFF718FB0134062CF5D90E4C04F1BC063046FFF70FFB04F1AF
:403FC000D0052846FFF70AFB04F11400FFF706FB04F1E400FFF702FB2046FFF7FFFAA662C4F8F85070BD00BFA81803087818030838B5044600F0E6FE264BD3F8FC2001326E
:40400000C3F8FC20D3F800314BB9224BC3F80041D3F8FC30012B10D1FFF7BEFF0DE01D4BD3F804314BB91B4BD3F80031DA6AE36A9A4202D8174BC3F80041164AD2F80831C6
:404040000133C2F80831E36AD2F80C21934202D9104AC2F80C310F4D05F1300003EB83039A00211D1044FFF7C9FA00F0CDFED5F804316BB1D5F80031DA6AE36A9A4207D2DC
:404080004FF08052044B1A60BFF34F8FBFF36F8F38BD00BF7818030804ED00E038B517E000F090FE0D4CD4F8F030DD68281DFFF7CBFAD4F8FC30013BC4F8FC30D4F81031B1
:4040C000013BC4F8103100F09FFE2846FFF704FF024BD3F81031002BE2D138BD7818030808B5FFF7DBFF064B1B6B012BF9D94FF08052044B1A60BFF34F8FBFF36F8FF0E779
:404100007818030804ED00E070B504460E46174BD3F81451D3F800010430FFF795FAB4F1FF3F07D136B11148D0F800110431FFF765FA70BD2C440D4BD3F800315C60A54247
:4041400008D90A4BD3F8F800D3F800110431FFF761FA70BD054DA86AD5F800110431FFF759FAEB6A9C4200D2EC6270BD781803082DE9F04385B006460F46154698469000F4
:4041800000F062FF60B18146682000F05DFF044610B1C0F8309004E0484600F085FF00E000248CB10023039302940D9B01930C9B009343462A4639463046FFF797FE2046B4
:4041C000FFF716FF012001E04FF0FF3005B0BDE8F08300BF00B583B0194B019300230093802218491848FFF7C3FF012801D100F0FFFB012814D14FF03F0383F31188BFF3D2
:404200006F8FBFF34F8F114B4FF0FF32DA620122C3F804210022C3F8142100F075FE0BE0B0F1FF3F08D14FF03F0383F31188BFF36F8FBFF34F8FFEE703B05DF804FB00BF52
:40424000941903084CEF0810E140081078180308034AD2F818310133C2F81831704700BF78180308014BD3F814017047781803082DE9F0413C4BD3F81831002B65D13A4B71
:40428000D3F814410134C3F81441CCB99B6A1B6843B14FF03F0383F31188BFF36F8FBFF34F8FFEE7304B9A6AD3F8F8109962C3F8F820D3F820210132C3F82021FFF7F6FD9F
:4042C000294BDB6A9C4203D2002645E0012600E00026254B9B6A1B680BB9012300E0002323B14FF0FF32204BDA6235E01E4B9B6ADB68DD686B689C4202D21B4AD3622BE0D7
:4043000005F104084046FFF79FF9AB6A1BB105F11800FFF799F9EB6A134AD2F80C21934202D9114AC2F80C310F4F07F1300003EB83039A0041461044FFF760F9EA6AD7F864
:404340000031DB6A9A42C1D2C3E7074AD2F824310133C2F824310026034BD3F8283103B101263046BDE8F08178180308394BD3F8183143B94FF03F0383F31188BFF36F8F8D
:40438000BFF34F8FFEE770B500F01CFD314BD3F81821013AC3F81821D3F81831002B52D12C4BD3F8FC303BBB00244FE0294D2B6ADC6804F11800FFF747F9261D3046FFF751
:4043C00043F9E36AD5F80C21934201D9C5F80C31204D05F1300003EB83039A0031461044FFF70CF9E26AD5F80031DB6A9A4204D30122C5F8282100E00024164B5B69002B6B
