:020000041000EA
:4000000000400208230100100D00000085010010000000000000000000000000000000000000000000000000000000008101001000000000000000008101001081010010E9
:400040008101001081010010810100108101001081010010810100108101001081010010810100108101001081010010810100108101001081010010810100108101001060
:400080008101001081010010810100108101001081010010810100108101001081010010810100108101001081010010810100108101001081010010810100108101001020
:4000C00010B5064C2378002B07D1054B002B02D0044800E000BF0123237010BD3C060008000000006C210010084B10B5002B03D00749084800E000BF07480368002B00D19D
:4001000010BD064B002BFBD09847F9E700000000400600086C210010E8000008000000007047FFF7FDFF72B60F4C104DAC4209DA21686268A368043B02DBC858D050FAE71C
:400140000C34F3E70A490B4A0020521A02DD043A8850FCDC084809490860BFF34F8F00F005F900F01DF8FEE770210010882100103C060008140800080000000808ED00E04D
:40018000FEE7FEE700B504207146084202D0EFF3098001E0EFF30880043001F0B7F9FEE710B562B6014800F067F9FEE70000081010B5002000F026FF10BDC04670B5624949
:4001C000E0239B00CB580F2213401A00D0329200525807210A40032A05D0042A06D0002A12D15A4814E05A4A106811E01A00C0329200554952581F210A40112A06D0132A7C
:4002000004D0FA20C00103E0524801E080200002002B36D14C4BB222D2009A5801211140B125ED005A59120F032422405B591B0F1C4207D0444C63591B0F03242340012BDC
:4002400002D102E0012300E00023002B01D0002901D1032A4BD13C4BB022D2009D58AD03AD0B3D495958C904C90C9C58240E01231C40013401F054FC6843210001F050FCDC
:4002800035E0012B33D1304BC822D2009A5801251540C024E4001A59120F03210A401B591B0F194207D028490B591B0F03210B40012B02D102E0012300E00023002B01D049
:4002C000002D01D1032A12D11F4DC022D200AB587F210B40A958090A1F263140AC58240C3440584301F01CFC210001F019FCE0239B00154AD3581B0903221340D840144C68
:400300006060164B1D692D0AFC32154001351969090E013101F004FCA060290001F000FC0500E06020610E4BC0180E4901F0F8FB20750D4BE818FA21890001F0F1FBA061B3
:40034000C003E06170BDC0460000264000127A00C000000800366E0184050000000021403F420F0040420F00E703000010B5284801F0D0FB274CB022D200A3585B005B0831
:40038000A350E0218900635830208343635080235B04A350204A214BE250A02292010433E250FF221E4BE25001F0A2FBC0225200A35801218B43A35000F08CF9FFF7FEFEBE
:4003C000B0235B055B78002B04D0B0235B055B78DBB200E02123212B03D1124B0022DA605A60114C22008021042000F0B1FB2000103000F045FC0D4B1A685123D35C002B95
:4004000002D00B4800F0B2FC00F07AFA10BDC046B42000100000264001000200840500008C050000E00023405806000810080008881C00108023024AD35803201840704792
:400440000000214010B501F0F4F8084980228C58074B2340074C23438B508823034AD358DB06FAD501F0E9F810BDC04600002140FCFF00000100FA0570B50500830504D0FF
:40048000E821FF310F4801F013F801F0D2F80400FFF7D0FF032801D1FFF7D4FF0A4AB0239B00D55080215058084B03400848034353508823044AD358DB06FAD5200001F082
:4004C000BCF870BDBC1C001000002140FCFF00000300FA05FEE7C04630B587B06E49A022D2008B58032083438B506C4A116808688823CB58C3181868694908401860136827
:40050000186884241B59C01803681B021B0A80256D042B430360106805680359EB1818680140196013683E229A5C002A06D05A48E02189004258753CA24342503E229A5C20
:40054000002A06D05448E021890042583024A24342503E229B5C002B07D04F49E02292008B588020000603438B500021012000F07BFD0021022000F077FD0021032000F03C
:4005800073FD0021042000F06FFD0021002000F06BFD01A8434903000A0032CA32C312CA12C300F08FFD002802D00420FFF792FF39493D4A8B588020000603438B503B4856
:4005C00000F03CFE002802D00420FFF783FF324C374BE158374A0A40E250E158364A0A40E250E25880252D062A43E250043BE158324A0A40E250E158314A0A408021890186
:400600000A43E250E258802109020A43E2502D4A11682D4B0B40802149000B431360002001F048FA294BE2581543E550E158012291430A43E2506421002000F07FFF174BC6
:400640001B683F229A5C052A03D90021204A986881509A6874215B5AD2181168104B0B408C2189010B4313600C4B1A687323D15C703B8B4019007023D35C7220105C83403E
:400680000B43802109060B438021C9009068435093685B5807B030BD0000264010080008FF00FFFFD41C0010087F0000400D030004050000FEFCFFFFFFFF00FFFFF0FFFF62
:4006C000FF8FFFFF00002740FFFCFFFF0C050000140C000070B58AB09621002000F02EFF00F004FF002814D100F0F0FEC0235B00244AD358DB0705D41100234A8B585B005E
:400700005B088B501F49204A8B588020000603438B50012001F066F91C4A516C1C4B0B40E82189010B435364536C1B0AFF2213403A2B07D1154A516C164B0B40E821890131
:400740000B435364FFF7C8FE01AD134C2A002300143343CB43C243CB43C243CB43C229000E4800F0D5F82A002300383313CB13C213CB13C213CB13C22900094800F0C8F8A7
:400780000AB070BD000026400C05000000002740FF00FFFFFFC5FFDFD41C00108002324000033240214B984230D00ED8402831D004D800281FD010282AD031E080282BD0FE
:4007C00080235B00984229D02AE0194B984229D007D8A0231B0698420DD0164B984212D01EE0154B98420AD0144B984209D0144B984215D101E0002016E0124814E012486E
:4008000012E0124810E0A020C0030DE007480BE00F4809E00F4807E00F4805E0034803E00E4801E0A420C0037047C04606005200010000F0090000A0040000F0050000F094
:40084000030000F0010052000200520003005200010050000200500005005200FF00520070B5124B1A683123D35C002B04D1C421FF310F4800F01CFE0C4B1D682C00B42362
:40088000EB582A6A944663441B68002B0BDB094B1868FFF787FF6B6801229A6063689B68002BFBD100E0044870BDC04610080008301D0010E80700080200500010B50D4B05
:4008C0001861002805D002230370FD33437000234380094B1B6850229A5C002A08D051229B5C002B04D04F3A0449002000F0F8FA10BDC046E807000810080008610100084B
:4009000010B502481430FFF7D9FF10BDE807000870B505000C0000285DD000295DD0FF230A689A4303D099212D4800F0C1FDFF2322699A4303D09A21294800F0B9FDA36896
:400940005B0D03D09B21264800F0B2FD63685B0A03D09C21224800F0ABFDE3695B0F03D09D211F4800F0A4FD236A5B0F03D09E211B4800F09DFD1B4A11688B69EB1ADB0941
:4009800049691B01CB18216829607D211068415C6918E06808607E211068415C6918206908607F211068415C6918606908607C211068415C6918A06808606168A961116814
:4009C00080228A5CAD18A2692A60E2691A60226A5A60002002E0044800E0034870BDC046701D00101008000801005A0070B504000D000A4B1A68B423D3581B181B68002B56
:400A00000ADA0B0C03D00649064800F051FD2D042D0C6560002000E0034870BD10080008D5020000F01D001001008A0070B505000C000368002B01DA002300E0084B002B9F
:400A40000BD1EA60230C03D00649074800F030FD2404240CAC60002000E0014870BDC04601008A00BB020000F01D001070B505000C1E03D19921084800F01AFD074B1A6841
:400A8000B423D3585B191B68002B03DAEB682360002000E0024870BD301E00101008000801008A0070B504000D00234B1A683123D35C834236D9002936D00B68DB0635D1D9
:400AC0003123D35C984204D3C421FF311B4800F0EFFC194B1B681A6AB0215B5A5C431419174E34602B68DA080021686801F0A4F800212000FFF77AFF3468002D03D111491F
:400B00000E4800F0D5FC2A0000212000FFF78EFF00280DD10A4B18680021FFF767FF002808D108E0084806E0074804E0064802E0064800E0054870BD10080008F01D0010F1
:400B4000000800089303000003018A0001018A0010B50400002A17D1002915D1124B1A683123D35C984204D3C421FF310F4800F09FFC0D4B1B681A6AB0215B5A5C43141910
:400B80000B4B1C6000200EE0002A09D0002909D0074B59609A60191D2000FFF783FF02E0044800E0034810BD10080008F01D00100008000803018A00F0B583B00D001C4B30
:400BC0001B68DC68236883422DD947097B01C01A012383401E00002903D100F02AFD019001E000230193124B18680368002B01DA002300E00F4B002B0ED16368BF00DF19B9
:400C00003B68334203D0B3433B60002400E00A4C0021FFF7EBFE00E0084C002D04D1019800F00BFD00E0064C200003B0F0BDC0460008000801008A000201880003018800AD
:400C400004018A000A4B1B68DA68136883420BD943095901401A0121814052689B009B580B4203D0034802E0034800E003487047000800080101880004018A000001880050
:400C8000034B1B68002B01D1014B18607047C0460C080008F0B5474680B404000F0090461E002D4B1B68002B03D1B5212B4800F0FFFB294B1B682C2060431C18FF221500DF
:400CC00035402560330A13406360360CA660244B1A683123D35C9D4204D3C421FF31214800F0E6FB1E4B1A68B023D35A6B43116A8C466344236166683223D35C9E4204D3CC
:400D0000E021FF31174800F0D3FB154B1B681D6A80367601AD196561A668330C04D0FF214900104800F0C4FB330C03D00E490D4800F0BEFB3604330C1E43AE604346E36195
:400D400027620023A361069B002B02D000229B5EA38104BC9046F0BD0C080008701E001010080008F01D0010FF010000F0B58FB0041E03D15221294800F09AFB6368032B70
:400D800003D95421254800F093FBE36A002B03D15821224800F08CFB236B002B03D159211E4800F085FB07AA1300210061C961C321C921C302AD290023001433C1CBC1C123
:400DC00041CB41C10821535E0CAE3380144B1B6836215B5E07998C466344B370089B0D930B9B0A980096A26AE16AFFF753FF2B69E868002200920021FFF74CFF216B3000FA
:400E000000F0E8FA0023F25E002A05DB1F231A401E3B9340034A13600FB0F0BD701E00101008000800E100E0F8B505000F0016001C00002A03D1FD21224800F039FB224BE6
:400E40001B68002B03D1FE211E4800F031FB1E4B1B682C2128004843181879435918012213004D68AB401B044568AA4015000269002A20D08F69002F1FD11268002A01DA4A
:400E8000002200E0114A002A19D132681204120C134333600369DE6001238B614C6204692B0C03D00A490B4800F002FB2A04120CA260002004E0084802E0084800E0074895
:400EC000F8BDC046701E00100C08000801008A00BB020000F01D001004028A0007028A0070B504000D0016000F4B1B68002B04D1AF2149000D4800F0DBFA0B4B1B682C2074
:400F000060431C18236A002B04D1B1214900074800F0CEFAE369B34204D9236AB6009D51002000E0024870BD0C080008701E00100A028A0070B582B00400002301930028DB
:400F400004D1D221FF312D4800F0B2FA2369002B04D1E9214900294800F0AAFA6369002B04D1D421FF31254800F0A2FA236A002B04D1EA214900214800F09AFA6269D568C4
:400F80002B0C24D01B041360136820691C4B1A68B423D358C3181B68002B18DA01A9FFF765FD00280ED1019803681E0CFF221340E269934207D29B00226AD358002B02D017
:400FC000984700E0002631002069FFF70FFD2D042D0C0FD063691D601B68636A002B03D098470023636203E0A36A002B00D098470023A36163691B6802B070BD701E0010EC
:401000001008000810B50400084B1B68002B04D1B221FF31064800F04BFA044B1B682C2060431818FFF786FF10BDC0460C080008701E001010B50400094B1B689B6CC340C8
:40104000DB0703D4BE21074800F032FA044B1B681B691034A402E3580F20184010BDC04610080008B01E0010134B1A683C23D35C83421DD9042904D94B1EFF3B9BB2132B39
:4010800018D8FF290CD91F2319400C4A0300C0339B009950D03080000423835000200AE007231940D0308000044BC150002002E0034800E00248704710080008000026402D
:4010C00001004A0070B5041E03D14A494A4800F0EFF9B023DB00494AD358002B00DA87E0474B22689A4203D94649434800F0E0F923689B039B0BE279002A02D080225204E0
:4011000000E000221343B022D2003C498B50A2883D4B9A4204D98C218900374800F0C8F922893A4B9A4203D93949334800F0C0F9A388DB04D90C23891B04364A13400B4319
:40114000354A2E498B50A37A0F2B04D98E218900294800F0ADF9E37A0F2B03D92F49264800F0A6F9A289284B9A4203D92C49224800F09EF9A37A0F211940E27A1201FF2350
:4011800013400B43A289120226490A401343A27B1207C02189050A401343B122D20017498B50A379042B03D91F49134800F080F9228A164B9A4204D9912189000E4800F081
:4011C00077F90E4819494558194B1D40A3791B02E022D20013402B4343504558154B1D40238A1B040B4A13402B434350002000E0114870BD1F020000F01E0010000026400E
:40120000FFFF030029020000FF1F0000FF010000310200000000FF0184050000390200003A02000000FF1F00430200008C050000FFF8FFFFFFFF00FE03004A0070B50500D5
:401240003149324A8B588020000603438B502C0003E0012000F020F9013CB223DB002A4AD3585B0701D4002CF3D12749B122D2008858274B03408020800503438B50002DC5
:4012800001D0002C0CD02049B022D2008B588020000603438B5003E0012000F0FDF8013CB223DB00184AD358DB0701D4002CF3D1002D01D0002C08D01349B122D2008B58AE
:4012C000C020800503438B5013E00F4BB121C90058580F4A02408020800502435A5008395A58520052085A5008495A58520052085A50002D03D0002C03D0002002E000205E
:4013000000E0044870BDC046000026408C050000FFFFFFCF02004A0070B505000C001A4B1B6828229A5C012A15D1820807211000884327D19200AD1AED00FF20A8401B687B
:4013400020339A181168AC4023004B40184004004C40146016E03A229B5EDBB2994203D176210A4800F0A4F8074B1B681B680722154080221206154380229201944664445E
:40138000A400E55070BDC04610080008781F001070B504000D000B4B9A680B4B9A420CD1002904D13821FF31084800F081F81034054BA400E058E55003E01034A400044BBE
:4013C000E05870BD00ED00E000000008781F001000000010F0B5474680B482B0061E01914AD04368032B03D93221264800F060F80023F05E002804DBB178FFF78DFF00248F
:4014000000E0214C0023F15E7368002912DB88081E4FC0308000C55903221140C900FC3290468A4095439A01434613408B402B43C35116E089B20F220A40083A9208063208
:40144000920013481018476803221140C900FF252A008A4097439A012B0013408B403B4343600B4B9A680B4B9A4206D10023F05E0199FFF78DFF00E0034C200002B004BCC3
:401480009046F0BD781F00100100560000E100E000ED00E00000000810B5034B1B78584300F0BEF810BDC046D400000801BEFEE770B50D00044C18220100200000F0C4FB4F
:4014C000A5610020FFF7F2FF00060008054B802212069A649B6C002B01DB002000E002487047C0460000274003004600054B8022120198585B68FF221A4202D08023DB027D
:401500001843704700002640FEE7C04610B50A4B0268DA6142681A6282685A62C2689A620269DA6242691A6382695A63C2699A63FFF7EAFF10BDC04600060008F0B5474606
:4015400080B4002801D0192300E064238B429B415B42304D2C682268A826A45BA41822680327BA433B401A4322602C682268A45BA2181668284CA046264016602C68266879
:40158000AA229446A25A96193268BA43134333602A6813686546525BD3181A68444614401C60002805D010291BD921291BD8012024E0184B1B6855229A5C914215D9562216
:4015C0009A5C914213D957229A5C914211D958229A5C91420FD959229B5C99420DD804200CE000200AE0022008E0002006E0012004E0022002E0032000E00520054A126889
:40160000526813680F218B430343136004BC9046F0BDC04610080008FFFCFFFF000000000230800803D001300238FCD1C046C0467047EFF3108072B6704780F310887047C1
:4016400010B5B0235B059B899BB2002B04D0B0235B059B899BB201E080235B0080225200934215D1184C23681968683A9B58C9180B680F208343963A13430B6021680C68F4
:401680009C23CB58E318196881430A431A6019E00D4C2368196898229B58C918B02040050A4BC2580A4B13400A681343C022920013430B60226811689C23D358CB18054A0D
:4016C00082581A6010BDC0461008000848180000FFFCFFFF4418000030B5B0235B059B899BB2002B04D0B0235B059B899BB201E080235B0080225200934215D1184C236845
:401700001968683A9B58C9180B680F208343953A13430B6021680C689C23CB58E318196881430A431A6019E00D4D2B68196898229B58C918B0246405C12040012258094BB2
:4017400013400A681343C022920013430B602A6811689C23D358CB1822581A6030BDC04610080008FFFCFFFFB0235B059B899BB2002B04D0B0235B059B899BB201E0802376
:401780005B008022520093420DD1104B1B681A6898215B58D21811680D4B0B40C021C9010B43136011E0094B1B68196898229B58C918084BB0225205D258074B13400A6855
:4017C0001343C022920013430B60704710080008FF8FFFFF18180000FFFCFFFF30B5B0235B059B899BB2002B04D0B0235B059B899BB201E080235B008022520093420DD120
:40180000134B1B681A6898215B58D2181168114B0B408021C9010B43136018E00C4D2B68196898229B58C918B02464050A4822580A4B13400A681343C022920013430B6002
:401840002A6811689C23D358CB1822581A6030BD10080008FF8FFFFF4C180000FFFCFFFF10B5B0235B059B899BB2002B04D0B0235B059B899BB201E080235B0080225200C7
:40188000934217D10020FFF7D5FBB0235B055B78002B04D0B0235B055B78DBB200E02123222B03D8002803D1013004E0012002E0002000E0012010BDF8B50700012803D9E6
:4018C0003D493E48FFF7F4FDB0235B055B78002B04D0B0235B055B78DBB200E021239DB2B0235B059B899BB2002B04D0B0235B059E89B6B201E0802676000020FFF79AFBDD
:40190000002814D180235B009E4212D1222D12D82B4B1B685C682B4821582B4B19403B068022520413400B432350002404E0274C02E0264C00E0254C80235B009E4201D10B
:40194000222D03D880235B009E4232D01C4B1A683123D35C002B04D1C421FF311C48FFF7A7FD174B1B681D6A80235B009E4203D1002F05D0174A06E0002F03D0164A02E031
:40198000164A00E0164A01212800FFF74FF800280FD10B4B1A68B423D3585B191B68002BF7DBEB681B0E1B06A0221206934200D100242000F8BDC0464C0A0000BC1F0010CD
:4019C0001008000818F00000FFFFFFFE04004200301D0010010100300300000C010000300100000CF8B50500012804D9822109012948FFF75DFDFFF733FF002849D0FFF71D
:401A000018FE0700002D11D10021244B244AD150E823DB00B0225205D65CF6B20120FFF74BFF041E19D1FFF70BFE16E0B02252051C4BD0581A4B194958501B49565CF6B22B
:401A40001A481A581F218A4314390A431A500320FFF722FDFFF7C2FE0024002C15D11049124A8B581F20834306401E438E50002D02D1FFF779FE08E00720FFF70DFDFFF7C9
:401A80002BFE0020FFF718FF04003800FFF7D5FD00E0074C2000F8BDBC1F0010307F00000000264010180000410700001CFF000003004200042805D10B4A116804230B43AF
:401AC00013600FE0094B1A681168A023D358CB180006C022920410401860034A136804218B4313607047C04610E000E0100800080749C02252008B589B009B088020C00539
:401B000003438B508B588020000603438B50704700002640014B18607047C04610080008002243088B4274D303098B425FD3030A8B4244D3030B8B4228D3030C8B420DD30D
:401B4000FF22090212BA030C8B4202D31212090265D0030B8B4219D300E0090AC30B8B4201D3CB03C01A5241830B8B4201D38B03C01A5241430B8B4201D34B03C01A524120
:401B8000030B8B4201D30B03C01A5241C30A8B4201D3CB02C01A5241830A8B4201D38B02C01A5241430A8B4201D34B02C01A5241030A8B4201D30B02C01A5241CDD2C309F0
:401BC0008B4201D3CB01C01A524183098B4201D38B01C01A524143098B4201D34B01C01A524103098B4201D30B01C01A5241C3088B4201D3CB00C01A524183088B4201D349
:401C00008B00C01A524143088B4201D34B00C01A5241411A00D20146524110467047FFE701B5002000F006F802BDC0460029F7D076E770477047C04603008218934202D080
:401C400019700133FAE77047030030B5002A0DD00C7801335D1E013A2C700131002CF5D19A189A4202D01C700133FAE730BD0000F8B5C046F8BC08BC9E467047F8B5C0468B
:401C8000F8BC08BC9E4670470300000001000000010000000000000005036000040000000100000000000000010000000604600008000000C8070008B101001073797374C0
:401CC000656D5F70736F63365F636D30706C75732E630000F4010000140004010A000905080000006301000003000000000000000000000068000000000000000000000017
:401D0000000000001212000000000000000000000000000000000000000000BA0000000000000000000000000000000000001D1D47656E6572617465645F536F757263652C
:401D40005C50536F43365C70646C5C647269766572732F7065726970686572616C2F6970632F63795F6970635F6472762E68000047656E6572617465645F536F7572636579
:401D80005C50536F43365C70646C5C647269766572735C7065726970686572616C5C6770696F5C63795F6770696F2E630000000047656E6572617465645F536F757263657C
:401DC0005C50536F43365C70646C5C647269766572735C7065726970686572616C5C6770696F5C63795F6770696F2E680000000047656E6572617465645F536F7572636537
:401E00005C50536F43365C70646C5C647269766572735C7065726970686572616C5C6970635C63795F6970635F6472762E68000047656E6572617465645F536F7572636531
:401E40005C50536F43365C70646C5C647269766572735C7065726970686572616C5C6970635C63795F6970635F6472762E63000047656E6572617465645F536F75726365F6
:401E80005C50536F43365C70646C5C647269766572735C7065726970686572616C5C6970635C63795F6970635F706970652E630047656E6572617465645F536F7572636554
:401EC0005C50536F43365C70646C5C647269766572735C7065726970686572616C5C70726F745C63795F70726F742E630000000047656E6572617465645F536F757263650F
:401F00005C50536F43365C70646C5C647269766572735C7065726970686572616C5C737973636C6B5C63795F737973636C6B2E630000000047656E6572617465645F536FD5
:401F4000757263655C50536F43365C70646C5C647269766572735C7065726970686572616C5C737973636C6B5C63795F737973636C6B2E680000000047656E657261746566
:401F8000645F536F757263655C50536F43365C70646C5C647269766572735C7065726970686572616C5C737973696E745C63795F737973696E742E630000000047656E6530
:401FC00072617465645F536F757263655C50536F43365C70646C5C647269766572735C7065726970686572616C5C737973706D5C63795F737973706D2E630000000020403F
:4020000000002440000000400000000000002340000030400000314000009F40000022400000104002020202020202020210101D800017007500FF03060206360410200052
:40204000000000007FC0000000040000000000000019324B647D00804000080B100000000000FF012002001F00800004FF081018001000140018001C4044484C500000000F
:40208000081000000800000004000000041000000012000004210000002100000016000040114002C41300138013A013200000001C00000000002140000025400000014074
:4020C0000000344000002440000031400000324000001F410000234000001140010101010101010101101010800019005500F0000501053B04101C01010000000FC00000B3
:402100000004000001010101011D3A57789600082000101208000000001F00000010000F002000023F06080E00080009000A000B24282C303400000010000000900000002B
:4021400088000000080000008000000004F0000000F00000400200002005A000D00100018001A0012000000010000000000000000000001000000008C000000090210010A7
:40218000C0000008400500003C060008D80100000048E80100127A0000093D0000093D0000093D0004000000A00F00000000D007E9000010C10000100000000010B5000443
:4021C000400B27D0144B1A68146AB023D15ACA00531AE3181B68002BF4DA3E220F4B1A600F4A104B1A60104B0621A322D20099500E4A98509B58084B1A68106AB023D15AAE
:40220000CA00531AC31800225A60084B064AD358002BFADA10BDC04610080008040126401E1F000008012640000026401C05000010B54378FF2B20D100F022FA04000F4B4D
:402240001A683123D35C042B04D8C421FF310C4800F00EFA094B1A68116AB023D35A9B00CB18DB685A68116801230B4313601368DB07FCD4200000F013FA10BD1008000884
:40228000301D0010F0B585B001900291544B1A683123D35C002B04D1C421FF31514800F0E7F94F4B1B681E6AB4229A58971950229B5C002B77D000F0C3F9050003283CD1C0
:4022C000474B1A683123D35C062B04D8C421FF31444800F0CDF9424B1968B023CB5A5A00D21853000A6A94466344B4228A58D3181B68002B23DB002000F0DAF93A4B9842C0
:402300001FD03A4B1A6900230021012000F0C0F9002803D0364C17E0013400E00024002000F0C6F9304B984202D0324B9C42F3D9304B9C4207D92E4C06E0002404E02C4CB5
:4023400002E02B4C00E00024002C46D100F098F90390294B294AD358002B13DA234A0121300000F0ADF900280ED10298FFF726FF019B002B0AD03B68002BFCDB00F070F9CF
:40238000040004E01A4C02E0194C00E01C4C032D05D10121002000F05BF90028F9D1039800F07EF919E000F06BF905000F4A0121300000F085F9002809D1019B002B08D0B4
:4023C0003B68002BFCDB00F04BF9040002E0084C00E00B4C280000F063F9200005B0F0BD10080008301D001001018800E807000805005200EF4902001C0500000000264087
:4024000001005000F0B54F464646C0B4824B1A685468B0235B055B78002B04D0B0235B055B78DBB200E02123212B67D1B023D15ACB005B1A116A8C46634419680029F5DA1B
:40244000DD6802212943D960B023D15ACB005B1A116A8C466344D968C9073ED5D9680904090C8C4684271168D559A84641440968090A0904FF26360431400D00882611686A
:40248000894691598846C14449460968090A0906294365462943D9601168D359C9180A685E4B98461A4090252D012A430A605A4B99461A6813689C46925962441368414629
:4024C00019400B002B4313604B461A681568D15969180B689359EB181B684F4B1A68B021555AEB005B1B156AAC46634400255D60156A515ACA00531AEB185B68484A11694D
:4025000004230B431361012801D030BF00E020BF414B1A68B023D15ACB005B1A116A8C46634419680029F3DAB02149054978002904D0B02149054978C9B200E021212129AF
:4025400032D1D968C90722D510688421525880180468324A1440DB681B0C1B02FF2109020B40234303602C4B19688823C8580B689C46604403681A400D6AB023CC5AE1001D
:402580000B1BEB18DB681B0E1B021A430260224B1A68106AB023D15ACA00531AC318DA6802218A43DA6028E086235B00E358002B23D11C4807681C4BA321C9005E581B4A7D
:4025C000904615681A4A0260062058503E21424611600631174A9950164B134AD358002BFADA154A86235B00E2500E4B1F60A323DB000D4AD6500D4B1D60074B1A68106A85
:40260000B023D15ACA00531AC31800225A600CBC90469946F0BDC04610080008FF00FFFF00ED00E00801264000002640040126401E1F00001C050000AAAAAAAA000000004E
:4026400001B40248844601BC604700BF3504001001B40248844601BC604700BFB90B001001B40248844601BC604700BF6108001001B40248844601BC604700BFB11400103F
:4026800001B40248844601BC604700BF3316001001B40248844601BC604700BF290E001001B40248844601BC604700BF3B16001001B40248844601BC604700BF450C001008
:4026C00001B40248844601BC604700BF2D0A0010000000000000000000000000000000000000000000000000000000000000000000000000000000000000000000000000A7
:402700000000000000000000000000000000000000000000000000000000000000000000000000000000000000000000000000000000000000000000000000000000000099
:402740000000000000000000000000000000000000000000000000000000000000000000000000000000000000000000000000000000000000000000000000000000000059
:402780000000000000000000000000000000000000000000000000000000000000000000000000000000000000000000000000000000000000000000000000000000000019
:4027C00000000000000000000000000000000000000000000000000000000000000000000000000000000000000000000000000000000000000000000000000000000000D9
:020000041008E2
:4000000000780408EB0208100D0000005103081051030810510308105103081000000000000000000000000000000000912E08104D03081000000000312F0810952F0810E7
:400040004D0308104D0308104D0308104D0308104D0308104D0308104D0308104D0308104D0308104D0308104D0308104D0308104D0308104D0308104D0308104D03081000
:400080004D0308104D0308104D0308104D0308104D0308104D0308104D0308104D0308104D0308104D0308104D0308104D0308104D0308104D0308104D0308104D030810C0
:4000C0004D0308104D0308104D0308104D0308104D0308104D0308104D0308104D0308104D0308104D0308104D0308104D0308104D0308104D0308104D0308104D03081080
:400100004D0308104D0308104D0308104D0308104D0308104D0308104D0308104D0308104D0308104D0308104D0308104D0308104D0308104D0308104D0308104D0308103F
:400140004D0308104D0308104D0308104D0308104D0308104D0308104D0308104D0308104D0308104D0308104D0308104D0308104D0308104D0308104D0308104D030810FF
:400180004D0308104D0308104D0308104D0308104D0308104D0308104D0308104D0308104D0308104D0308104D0308104D0308104D0308104D0308104D0308104D030810BF
:4001C0004D0308104D0308104D0308104D0308104D0308104D0308104D0308104D0308104D0308104D0308104D0308104D0308104D0308104D0308104D0308104D0308107F
:400200004D0308104D0308104D0308104D0308104D0308104D0308104D0308104D0308104D0308104D0308104D0308104D0308104D0308104D0308104D0308104D0308103E
:400240004D0308104D0308104D0308104D0308104D0308104D0308104D0308104D0308104D0308104D0308104D0308104D0308104D0308104D0308104D0308104D030810FE
:400280004D0308104D0308104D03081010B5054C237833B9044B13B10448AFF300800123237010BD2C690208000000001C7E0810084B10B51BB108490848AFF3008008481C
:4002C000036803B910BD074B002BFBD0BDE81040184700BF00000000306902081C7E0810F8620208000000007047FFF7FDFF72B6104C114DAC4209DA21686268A368043BFD
:40030000A2BFC858D050FAE70C34F3E70B490C4A00209142BCBF41F8040BFAE709480A490860BFF34F8F00F04DF900F027F900F01DF8FEE7207E0810387E08102C690208F1
:40034000E89A03080040020808ED00E0FEE7FEE700B504207146084202D0EFF3098001E0EFF30880043000F069FFFEE730B583B000F004F900F03AF862B603F029F80022BF
:4003800010E011489300C1180D681049CC18256000F57A6003441B6802F6B83001EB80010B600132B2F57A7FEBDB094805F0BEFA0023019300934FF47A720649064802F061
:4003C0005FF802F08FF8FEE78C4202088C3C0308AC770810C0770810AD08081008B5012000F0A6FE08BD00BF704700BF5C4AD2F8803303F00F0303F1D00152F8212002F070
:400400000702032A04D0042A05D092B9554914E0554A116811E003F1C002514951F8222002F01F02112A06D0132A04D04FF4FA4103E04E4901E04FF400418BBB484BD3F8B8
:40044000902502F00100D3F88825C2F30172D3F8883513F0405F07D0414BD3F88835C3F30173012B02D102E0012300E0002303B108B9032A46D13A48D0F88025C2F311037C
:40048000D0F88425C2F30C02D0F88005C0F300600130B1FBF2F202FB03F2B2FBF0F131E0012B2FD12E4BD3F8402602F00100D3F80026C2F30172D3F8003613F0405F07D0FA
:4004C000274BD3F80036C3F30173012B02D102E0012300E0002303B108B9032A12D12048D0F8002602F07F02D0F80036C3F30423D0F80006C0F3044002FB01F2B2FBF3F2E7
:40050000B2FBF0F1164BD3F88033C3F3011321FA03F215494A601648D0F89030C3F3072301330069000E0130B2FBF0F08860B2FBF3F3CB600B6103F5742202F23F220D48F3
:40054000A0FB0202C2F387420A7503F2E7330A4AA2FB03239B098B61DB03CB61704700BF0000264000127A002462020800366E010000214083DE1B43D34D621008B50D48BE
:4005800000F0BEFEFFF730FFFFF730FF00221146042000F095FB084800F028FC074B1B6893F8513013B1064800F090FC00F0D2FA08BD00BF347A081048690208589A030897
:4005C000D477081008B500F094FE074AD2F8883043F47003C2F88830BFF34F8FBFF36F8F00F08BFE08BD00BF00ED00E070B586B005460E46084C23680093084B084A0B2123
:4006000003A803F0D1F823683246294603A803F0DDF806B070BD00BF44620208C86A0208F861020870B586B005460E46084C23680093084B084A0B2103A803F0B5F823686A
:400640003246294603A803F0C1F806B070BD00BF44620208C86A0208CC61020830B4002321E003F57A74134D05EB8404D4ED007AF5EEC07AF1EE10FA14D503F2E93405EB85
:400680008404D4ED007AF5EEC07AF1EE10FA09DD146801341460012C00D103601468012C00DD0B60013340F2E634A342D9DD30BC704700BF8C3C030800B585B00023039321
:4006C000029304AA42F80C3D02A903A8FFF7C6FF0198013843F6982303FB00F0039A029B9B1A90FBF3F003F0D1FD02F0A3FE04F0E3F8C0B2024B1870187805B05DF804FB0F
:40070000549A0308000000002DE9F0438BB0002309930893079306930593049300230393029301930093484C03AB09AA4FF47A71204602F0A1FF454D02AB07AA4FF47A71D2
:40074000284602F099FF01AB08AA4FF47A71204602F0BEFE6B4606AA4FF47A71284602F0B7FEDDED087A9DED097A77EE677A17EE900A03F09DFD80468946DDED067A9DED09
:40078000077A77EE677A17EE900A03F091FD06460F4605AA4FF47A7104F57A6002F030FF04AA4FF47A7104F57A5002F029FF059803F07EFD02460B464046494603F0F6FE87
:4007C00004460D46049803F073FD02460B463046394603F0EBFE02460B462046294603F0E5FE04460D4602460B4603F0B5FD12A3D3E9002303F0B0FD06460F4610A3D3E990
:4008000000232046294603F0A7FD02460B463046394603F0EFFB00220D4B03F0EBFB02F009FE04F069F80B4B186018680BB0BDE8F08300BFAFF3008048E17A14AE8746C029
:40084000B4C876BE9F5A3E402C4C03080C7B030800805B404C9A030870B5044600F5FA65114E06EB8505294606EB8000FFF7BEFE04F57A7106EB81012846FFF7D3FE04F57C
:400880009C50083006EB800504F6B830294606EB8000FFF7ABFE04F57A6106EB81012846FFF7C0FE70BD00BF8C3C030810B582B00024304BA3FB04239B094FF47A7202FBEA
:4008C00013439BB2002B48D1944246D22A4B1B79002B42D02046FFF7BFFF01AA4FF47A71264802F08DFE6A464FF47A71244802F087FE002219E0234B02F57A7103EB810163
:40090000D1ED007A9DED017A77EEC77AC1ED007A02F57A6103EB8103D3ED007A9DED007A77EEC77AC3ED007A0132B2F57A7FE2DBFFF7C2FE144B18701978144804F084FFC9
:40094000FFF7E2FE124B1860D3ED007AFCEEE77A17EE901A0F4804F077FF0134A4B2B4F57A7F02D10024044B1C71012001F0FEFE9FE700BFD34D6210446202082C4C0308BF
:400980000C7B03088C3C0308549A0308087808104C9A03081478081010B504462146034800F0DEFC0028F9D010BD00BF00006640054BD3F80833C3F30803002BF8D0024BA7
:4009C000D3F84003704700BF000066401F4B98422DD00CD840282ED003D8E8B1102828D02FE0802829D0B0F5807F28D029E0184B984228D006D8B0F1204F0DD0154B98420F
:400A000012D01EE0144B98420AD00133984209D0023B984215D101E0002070470F4870470F4870470F4870474FF4A0007047074870470D4870470D4870470D4870470348EE
:400A400070470C4870474FF4A400704706005200010000F0090000A0040000F0010052000200520003005200010050000200500005005200FF00520038B5124B1B6893F891
:400A80003130012B04D840F2C3110F4800F0C6FB0C4B1D682A6AB5F8B03013442C46D5F8B420D358002B0BDB084B1868FFF78EFF6B6801229A6063689B68002BFBD138BD1C
:400AC000034838BD589A030838780810907A0208020050001A4B186128B102230370FF23437000234380174B1B6893F850202AB300B583B0B3F93830ADF80030002301933C
:400B00001149684600F04EFBBDF90030002B08DB590903F01F03012202FA03F30B4A42F82130084B1B6893F8513023B102220849012000F077FA03B05DF804FB704700BFEA
:400B4000907A0208589A03086963020800E100E02164020808B50248FFF7BCFF08BD00BFA47A020838B50B4B1B68D3F8B4301B58002B0DDA0D4604460B0C1B0423B140F207
:400B8000D521054800F04AFBA9B26160002038BD024838BD589A03087878081001008A0038B50368002B01DA002300E0094B73B90D460446C2600B0C1B0423B140F2BB2105
:400BC000054800F02BFBA9B2A160002038BD014838BD00BF01008A007878081038B504460D4619B99921084800F018FB074B1B68D3F8B4301B59002B03DAE3682B60002032
:400C000038BD034838BD00BFB8780810589A030801008A00254B1B6893F8313083423AD900293AD00B6813F01F0F38D170B50D4604461E4B1B6893F83130984204D340F2DC
:400C4000C3111B4800F0EAFA184B1B68186AB3F8B03004FB0304174E34602A68D2080021686804F078F900212046FFF77BFF346825B940F293310E4800F0D0FA2A460021AD
:400C80002046FFF78DFF60B900210A4B1868FFF769FF40B970BD084870470748704706487047064870BD054870BD00BF589A030878780810A87A020803018A0001018A00A8
:400CC00010B504461346B2B9A9B9124B1B6893F83130984204D340F2C3110F4800F09EFA0C4B1B681A6AB3F8B03004FB03240B4B1C60002010BD43B149B1084A51609360AB
:400D0000111D2046FFF786FF10BD054810BD044810BD00BF589A030878780810A87A020803018A002DE9F0411B4B1B68DC68236883422CD90D464609A0EB4610012303FAB9
:400D400000F819B900F0D5FA074600E00027124B18680368002B01DA002300E00F4B83B9626852F8263018EA030F05D023EA080342F82630002400E0094C0021FFF7F2FE54
:400D800000E0084C25B9384600F0B7FA00E0064C2046BDE8F08100BFA87A020801008A00020188000301880004018A000B4B1B68DB681A6882420CD94109A0EB41100122A8
:400DC00002FA00F05B6853F82130184203D004487047044870470448704700BFA87A02080101880004018A0000018800024B1B680BB9014B18607047B47A02082DE9F8434D
:400E00000446884691461D46089F2C4B1B681BB9B5212B4800F002FA284B1B682C2000FB04F01C18EEB21E50C5F3072363602D0CA560244B1B6893F831309E4204D340F299
:400E4000C311214800F0EAF91E4B1B68196AB3F8B02006FB02162661666893F832309E4204D340F2DF11184800F0D8F9154B1B681D6A803605EB46156561A668330C1B0486
:400E800023B14FF4FF71104800F0C8F9330C1B0423B140F2FF110C4800F0C0F9B3B243EA0646AE60C4F81C90C4F820800023A36117B1B7F90030A381BDE8F883B47A020836
:400EC000F8780810589A030878780810F0B58FB0044618B95221274800F0A0F9A369072B03D95621234800F099F9E36A1BB95821204800F093F9236B1BB959211D4800F0CE
:400F00008DF907AD04F114060FCE0FC537682F6002AD26460FCE0FC533682B60164B1B68B3F93620079B1344ADF83030089B0D93A26AE16A0CAD00953B460A98FFF75EFF55
:400F400000210091069B0A460598FFF757FF216B284600F027F9BDF93030002B08DB590903F01F03012202FA03F3044A42F821300FB0F0BDF8780810589A030800E100E0A0
:400F8000F8B506460F461D4614461AB9FD211F4800F044F91E4B1B681BB9FE211B4800F03DF91B4B1B682C2101FB063001FB07314B68012202FA03F31B04466802FA06F610
:400FC0000269EAB18F69EFB91268002A01DA002200E0104AC2B92288134323600369DC6001238B614D620469330C1B0423B140F2BB21094800F012F9B2B2A2600020F8BDD7
:401000000648F8BD0648F8BD0548F8BDF8780810B47A020801008A007878081004028A0007028A00F8B505460F4616460E4B1B6823B94FF4AF710D4800F0F0F80A4B1B6869
:401040002C2404FB0534236A23B94FF4B171074800F0E4F8E369B34204D9236A43F826700020F8BD0248F8BDB47A0208F87808100A028A0070B582B000230193044620B928
:4010800040F2D111284800F0C9F8236923B94FF4E971254800F0C2F8636923B940F2D311214800F0BBF8236A23B94FF4EA711E4800F0B4F86369DD682A0C20D012041A6045
:4010C0001B682069194B1B68D3F8B430C358002B15DA01A9FFF782FD60B9019803681E0CDBB2E269934206D2226A52F8233013B1984700E0002631462069FFF733FDADB2D7
:4011000075B16369ADB21D601B68636A1BB198470023636202E0A36A03B198470023A36163691B6802B070BDF8780810589A030810B50446074B1B6823B940F2B1110648A0
:4011400000F06CF8034B1B682C2000FB0430FFF791FF10BDB47A0208F878081038B50D4B9A680D4B9A420FD10D46044621B940F237110A4800F052F804F11003064A52F842
:40118000230042F8235038BD1030054B53F8200038BD00BF00ED00E000400208387908100000081048B338B504460D464368072B03D93221134800F031F8B4F90030626817
:4011C000002B08DB5201D2B203F1604303F5614383F8002305E003F00F035201D2B20A49CA540A4B9A680A4B9A4208D12946B4F90000FFF7B3FF002038BD064870470020A8
:4012000038BD00BF3879081014ED00E000ED00E0004002080100560001BEFEE738B50D46044C18220146204604F090FBA5610020FFF7F2FF98680208FEE700BF08B5026866
:40124000254BDA6142681A6282685A62C2689A620269DA6242691A6382695A63C2699A631E4A916AD963D16A1964516A5964516B9964926BDA64F1EE103A13F0900F27D0AD
:40128000026A154B1A65426A5A65826A9A65C26ADA65026B1A66426B5A66826B9A66C26BDA66026C1A67426C5A67826C9A67C26CDA67026DC3F88020426DC3F88420826DEB
:4012C000C3F88820C26DC3F88C20026EC3F89020FFF7B2FF08BD00BF9868020800ED00E00230800803D001300238FCD100BF00BF7047EFF3108072B6704780F3108870470B
:40130000014B1860704700BF589A030810B4D0F8003303F00F03072B06D900230DE0D0F84043CC54013300E000239342F7D306E0D0F8404321F8134001339342F8D35DF88A
:40134000044B704710B51446D0F80833C3F308039A4200D31C462246FFF7D8FF204610BD036813F4006F01D0802200E04022D0F80832C3F30803934203D0C0F840120120DF
:4013800070470020704700BF10B4D0F8003203F00F03072B06D900230DE0CC5CC0F84042013300E000239342F7D306E031F81340C0F8404201339342F8D35DF8044B7047F9
:4013C00010B51446036813F4006F01D0802200E04022D0F80832C3F30803D31AA34200D81C462246FFF7D0FF204610BD2DE9F84305460C46036813F4006F02D04FF08008A1
:4014000001E04FF04008D5F8007207F00F07A26A012A19D9D4F82490E262561EB9F1000F00D026B940F273512548FFF7F7FE324649462846FFF7C4FFA36A1B1AA362072F36
:4014400000D9400048446062D5F80832C3F30803984533D0A36A012B30D10023A362072F02D8636A1E7801E0636A1E88FFF741FFC5F840624FF40073C5F8803FD5F8803FE1
:40148000FFF73BFFD5F8883F23F4007222F0010242F4007623F4EE6323F0030323B140F22A410848FFF7BAFEC5F8886F236843F002032360236B0BB101209847BDE8F883CA
:4014C000EC7A08102C7B08102DE9F04105460C46036813F4006F01D0802600E040267608A769D4F81C8017B1B8F1000F04D14FF499613148FFF792FE424639462846FFF73B
:4015000021FF236A03442362E3691B1AE36173BBA368FBB1E3689E4201D8013E00E05E1E2B6813F4006F01D0802300E040239E4204D34FF420712148FFF770FED5F80433CD
:4015400023F0FF03F6B21E43C5F804630123C5F8C83F02E00023C5F8C83F636823F001036360236B33B304209847BDE8F081A169D5F8002302F00F02072A00D940000844B3
:40158000A0619E4216D95C1E2B6813F4006F01D0802300E040239C4204D34FF420710748FFF73CFED5F8043323F0FF02E3B21343C5F80433BDE8F081EC7A08102C7B0810CF
:4015C000002800F0A48170B50546002900F0A18116460C460B78022B03D93F21A248FFF71DFE637B023BDBB2062B03D940219E48FFF714FEA37B3BB1022B05D0032B03D05D
:4016000041219948FFF70AFE94F82130012B03D942219548FFF702FE94F82830012B03D943219148FFF7FAFD2378012B06D86368083B082B94BF0023012307E0A37F2BB1D3
:401640006368013B062B94BF002301231BB145218548FFF7E3FDA368053B042B03D946218148FFF7DBFD6369FF2B03D947217E48FFF7D4FDA369FF2B03D948217A48FFF775
:40168000CDFDA37C6BB1237833B9A368092B05D1A37B2BB1012304E0012302E0012300E000231BB14A217048FFF7B8FD636B23F4366323F00D031BB14C216B48FFF7AEFD92
:4016C000E36B23F4EE6323F003031BB14D216648FFF7A4FD2378022B01D1A37F13B16268013A00E00022237F13B14FF4803100E00021A368082B02D84FF4006300E00023F9
:401700000B4302F00F02134343F000732B60226B2B6813F4006F01D0802300E040239A4203D362215048FFF779FDA26B2B6813F4006F01D0802300E040239A4203D3632148
:401740004948FFF76BFD626A2B6813F4006F01D0802300E040239A4203D364214248FFF75DFD23781B0603F040732B64637F0BB1402200E00022A37C13B14FF4806300E001
:4017800000231343227C12B14FF4807200E000221343627C12B14FF4007200E000221A43E36A013B1B0403F470231343627B013A02F007021343A27B120102F03002134372
:4017C000AB64237B13B14FF4807200E00022E37B23B92378022B03D1012302E0012300E0002313B14FF4007300E000231A43A368013B03F00F031343C5F80033227DA36927
:401800001B0403F47F031343C5F81033E26AD5F8003303F00F0303339A4201D3102A03D97A211148FFF7FAFCE37F23B12378012B03D0002302E0002300E0012313B14FF48A
:40184000807200E00022637B013B03F007031A43A37B1B0103F0300313436B64237B2BB14FF4807203E000BF707B08100022A368013B03F00F0313432278012A02D14FF488
:40188000803200E000221343C5F8003294F83030C5F8043394F8203013B14FF0007200E0002294F82130012B02D14FF0807300E00023134394F82820012A02D14FF48032CE
:4018C00000E00022134394F8242013432B6594F83830C5F80432636B23F4926323F002031B051B0DC5F8C83FE36B23F08C035B055B0DC5F8883F76B1002070603060B06002
:40190000F0603062F0623063044B736370BD04487047034870BD002070BD00BFEFCDAB000160AA000B694A69934202D34869181A7047CA694869101A184470472DE9F041C2
:4019400007460D46036813F4006F02D04FF0800801E04FF040084FEA5808D7F80863C6F308062C6926E00134EB689C4200D100246B699C420FD12B6B0BB1082098476B6996
:401980009C4208D10023C7F8C83F0CB1013C13E0EC68013C10E0D7F84023D7F8003303F00F03072B02D8AB681A5502E0AB6823F81420013E002ED6D12C61EC68294638462C
:4019C000FFF7B0FF201A804519D908B1441E00E000243B6813F4006F01D0802300E040239C4204D34FF420710648FFF717FCD7F8040320F0FF03E0B21843C7F80403BDE842
:401A0000F08100BF2C7B081038B504460D46D0F8003E13F0080F35D0D0F8CC3F13F448730AD04A681A434A60C0F8C03FD0F8C03F0B6B0BB110209847D4F8CC3F13F4006FD4
:401A400009D06B6843F400636B604FF40063C4F8C03FD4F8C03FD4F8CC3F13F0010F11D0EB6923B129462046FFF72EFD05E0AB681BB129462046FFF761FF0123C4F8C03F72
:401A8000D4F8C03FD4F8003E13F0040F2ED0D4F88C3F13F4A0630AD02A681A432A60C4F8803FD4F8803F2B6B0BB120209847D4F88C3F13F0010F08D029462046FFF796FCF3
:401AC0000123C4F8803FD4F8803FD4F88C3F13F4007F0BD00022C4F8882F2B6823F001032B60EA622B6B0BB10220984738BD00BF00F1080343604FF0FF328260C36003612F
:401B000000230360704700BF00230361704700BF43684B609A688A609A68516099600861036801330360704730B40D68B5F1FF3F01D1026907E000F1080200E01A46536845
:401B40001C68A542FAD253684B6099608A605160086103680133036030BC704703694268816891608268416851605A68904201D182685A60002202611A68013A1A601868AC
:401B8000704700BF10B5044601F094F9A26BE36B9A4201D1012400E0002401F0ADF9204610BD00BF10B5044601F084F9A36B0BB9012400E0002401F09FF9204610BD00BF74
:401BC00070B504461646856B026CFAB166B9806803F0B6F9A268236C1344A3606268934214D32368A36011E0C06803F0A9F9236C5B42E2681A44E26021688A4202D26268AA
:401C00001344E360022E01D105B1013D0135A563002070BD026C72B110B50346C4681444C4604068844201D31868D8600846D96803F086F910BD704738B5054601F03AF967
:401C400095F8454064B20AE06B6A53B105F1240000F050FE08B100F0DBFE013C64B2002CF2DCFF2385F8453001F046F901F022F995F8444064B20AE02B6953B105F1100053
:401C800000F038FE08B100F0C3FE013C64B2002CF2DCFF2385F8443001F02EF938BD00BF38B540B94FF03F0383F31188BFF36F8FBFF34F8FFEE704460D4601F0FBF82168C3
:401CC000E26B236C03FB021060600020A063A160013A02FB0313E360FF2384F8443084F845307DB92369ABB104F1100000F002FE80B14FF08052094B1A60BFF34F8FBFF31B
:401D00006F8F07E004F11000FFF7F2FE04F12400FFF7EEFE01F0F0F8012038BD04ED00E010B5029B0C4609B91B6000E01A60D8631C6401211846FFF7B3FF10BD40B94FF0E5
:401D40003F0383F31188BFF36F8FBFF34F8FFEE7F0B583B0034611B101FB00F000E000201D4617460C46483001F03EFA064638B100903B4600F1480221462846FFF7D0FF50
:401D8000304603B0F0BD00BFF0B585B0019240B94FF03F0383F31188BFF36F8FBFF34F8FFEE7044619B9026C1AB9012202E0012200E0002242B94FF03F0383F31188BFF3AF
:401DC0006F8FBFF34F8FFEE7022B03D1E26B012A02D102E0012200E0002242B94FF03F0383F31188BFF36F8FBFF34F8FFEE71D460E4600F015FE18B9019B1BB9012302E06C
:401E0000012300E0002343B94FF03F0383F31188BFF36F8FBFF34F8FFEE7002701F04AF8A26BE36B9A4201D3022D21D12A4631462046FFF7C5FE636A6BB104F1240000F04C
:401E400059FD88B14FF08052324B1A60BFF34F8FBFF36F8F08E038B14FF080522D4B1A60BFF34F8FBFF36F8F01F046F801204EE0019B1BB901F040F8002048E01FB902A896
:401E800000F07CFD012701F037F800F069FB01F011F894F844305BB2B3F1FF3F02D1002384F8443094F845305BB2B3F1FF3F02D1002384F8453001F01FF801A902A800F02B
:401EC00067FDF0B92046FFF75DFEA0B1019904F1100000F0D7FC2046FFF7AEFE00F0CEFB00289BD14FF080520A4B1A60BFF34F8FBFF36F8F92E72046FFF79EFE00F0BEFBDC
:401F00008CE72046FFF798FE00F0B8FB002005B0F0BD00BF04ED00E02DE9F84340B94FF03F0383F31188BFF36F8FBFF34F8FFEE7044619B9006C18B9012002E0012000E02B
:401F4000002040B94FF03F0383F31188BFF36F8FBFF34F8FFEE7022B03D1E06B012802D102E0012000E0002040B94FF03F0383F31188BFF36F8FBFF34F8FFEE71F4690465F
:401F8000894601F09BF8EFF311864FF03F0383F31188BFF36F8FBFF34F8FA26BE36B9A4201D3022F1ED194F845506DB23A4649462046FFF705FEB5F1FF3F0DD1636A9BB1D1
:401FC00004F1240000F096FC80B1B8F1000F0FD00120C8F800000CE06B1C5BB284F84530012006E0002004E0012002E0012000E0012086F31188BDE8F88300BFF0B585B031
:40200000019240B94FF03F0383F31188BFF36F8FBFF34F8FFEE7044619B9036C1BB9012302E0012300E0002343B94FF03F0383F31188BFF36F8FBFF34F8FFEE70E4600F0DE
:40204000EFFC18B9019B1BB9012302E0012300E0002343B94FF03F0383F31188BFF36F8FBFF34F8FFEE7002700F024FFA56BC5B131462046FFF7CEFD013DA563236963B112
:4020800004F1100000F036FC38B14FF08052304B1A60BFF34F8FBFF36F8F00F02DFF012053E0019B1BB900F027FF00204DE01FB902A800F063FC012700F01EFF00F050FA47
:4020C00000F0F8FE94F844305BB2B3F1FF3F02D1002384F8443094F845305BB2B3F1FF3F02D1002384F8453000F006FF01A902A800F04EFCF0B92046FFF754FDA0B101998A
:4021000004F1240000F0BEFB2046FFF795FD00F0B5FA0028A8D14FF080520D4B1A60BFF34F8FBFF36F8F9FE72046FFF785FD00F0A5FA99E72046FFF77FFD00F09FFA204652
:40214000FFF730FD00288FD0002005B0F0BD00BF04ED00E000230BE0074A52F8332032B9054A42F8331002EBC303586070470133092BF1D9704700BF5C9A030870B50446B6
:402180000D46164600F096FE94F844305BB2B3F1FF3F02D1002384F8443094F845305BB2B3F1FF3F02D1002384F8453000F0A4FEA36B2BB93246294604F1240000F07CFB55
:4021C0002046FFF739FD70BD094B9B6A1B680BB9012300E0002323B14FF0FF32044BDA627047034B9A6AD268D2685268DA627047F47A020810B50446006B01F07BF82046A4
:4022000001F078F810BD00BF2DE9F0478246894615469846089F099E0A9C9200A521206B02F099FE236B05F18042013A03EB820525F00705002308E019F80310E21882F87A
:40224000341019F8032012B101330F2BF4D9002384F84330062F00D90627E762201DFFF753FC04F11800FFF74FFC2461C7F10703A3616462002306E003F1100204EB8202EF
:40228000002151600133042BF6D90023A36584F85C3042465146284600F0E4FD206006B13460BDE8F08700BF70B5002407E004EB8402930010481844FFF71AFC0134062C84
:4022C000F5D90E4C04F1BC063046FFF711FC04F1D0052846FFF70CFC04F11400FFF708FC04F1E400FFF704FC2046FFF701FCA662C4F8F85070BD00BF247B0208F47A02080C
:4023000038B5044600F0D6FD264BD3F8FC200132C3F8FC20D3F800314BB9224BC3F80041D3F8FC30012B10D1FFF7BEFF0DE01D4BD3F804314BB91B4BD3F80031DA6AE36AD5
:402340009A4202D8174BC3F80041164AD2F808310133C2F80831E36AD2F80C21934202D9104AC2F80C310F4D05F1300003EB83039A00211D1044FFF7CBFB00F0BDFDD5F825
:4023800004316BB1D5F80031DA6AE36A9A4207D24FF08052044B1A60BFF34F8FBFF36F8F38BD00BFF47A020804ED00E038B517E000F080FD0D4CD4F8F030DD68281DFFF75B
:4023C000CDFBD4F8FC30013BC4F8FC30D4F81031013BC4F8103100F08FFD2846FFF70AFF024BD3F81031002BE2D138BDF47A020808B5FFF7DBFF064B1B6B012BF9D94FF085
:402400008052044B1A60BFF34F8FBFF36F8FF0E7F47A020804ED00E070B504460E46174BD3F81451D3F800010430FFF797FBB4F1FF3F07D136B11148D0F800110431FFF7C5
:4024400067FB70BD2C440D4BD3F800315C60A54208D90A4BD3F8F800D3F800110431FFF763FB70BD054DA86AD5F800110431FFF75BFBEB6A9C4200D2EC6270BDF47A020820
:402480002DE9F04385B006460F4615469846900000F0AAFE60B18146602000F0A5FE044610B1C0F8309004E0484600F023FF00E000248CB10023039302940D9B01930C9B37
:4024C000009343462A4639463046FFF79DFE2046FFF716FF012001E04FF0FF3005B0BDE8F08300BF00B583B0194B019300230093802218491848FFF7C3FF012801D100F0C1
:40250000F5FA012814D14FF03F0383F31188BFF36F8FBFF34F8F114B4FF0FF32DA620122C3F804210022C3F8142100F065FD0BE0B0F1FF3F08D14FF03F0383F31188BFF37A
:402540006F8FBFF34F8FFEE703B05DF804FB00BF107C0208B07B0810F1230810F47A0208034AD2F818310133C2F81831704700BFF47A0208014BD3F814017047F47A0208C5
:402580002DE9F0413C4BD3F81831002B65D13A4BD3F814410134C3F81441CCB99B6A1B6843B14FF03F0383F31188BFF36F8FBFF34F8FFEE7304B9A6AD3F8F8109962C3F830
:4025C000F820D3F820210132C3F82021FFF7FCFD294BDB6A9C4203D2002645E0012600E00026254B9B6A1B680BB9012300E0002323B14FF0FF32204BDA6235E01E4B9B6A64
:40260000DB68DD686B689C4202D21B4AD3622BE005F104084046FFF7A1FAAB6A1BB105F11800FFF79BFAEB6A134AD2F80C21934202D9114AC2F80C310F4F07F1300003EB36
:4026400083039A0041461044FFF762FAEA6AD7F80031DB6A9A42C1D2C3E7074AD2F824310133C2F824310026034BD3F8283103B101263046BDE8F081F47A0208394BD3F8E2
:40268000183143B94FF03F0383F31188BFF36F8FBFF34F8FFEE770B500F00CFC314BD3F81821013AC3F81821D3F81831002B52D12C4BD3F8FC303BBB00244FE0294D2B6A30
:4026C000DC6804F11800FFF749FA261D3046FFF745FAE36AD5F80C21934201D9C5F80C31204D05F1300003EB83039A0031461044FFF70EFAE26AD5F80031DB6A9A4204D3C6
:402700000122C5F8282100E00024164B5B69002BD4D10CB1FFF758FD124BD3F8244164B1FFF72EFF18B101220E4BC3F82821013CF6D100220B4BC3F824210A4BD3F828316C
:402740005BB14FF08052084B1A60BFF34F8FBFF36F8F012402E0002400E0002400F0CCFB204670BDF47A020804ED00E010B5B0B10446104BD3F8183143B14FF03F0383F3A3
:402780001188BFF36F8FBFF34F8FFEE7FFF7E8FE00212046FFF740FEFFF770FF00E0002038B94FF08052044B1A60BFF34F8FBFF36F8F10BDF47A020804ED00E0304BD3F8F8
:4027C000183123B101222E4BC3F82821704710B52B4B0022C3F82821D3F800311B6B1A68B2F1A53F0BD15A68B2F1A53F07D19A68B2F1A53F03D1DB68B3F1A53F07D0204B12
:40280000D3F80001D3F80011343100F083FC1C4BD3F80C310AE043B94FF03F0383F31188BFF36F8FBFF34F8FFEE7013B03EB83018A0013490A44126B002AECD008469900E6
:40284000CC18A2000244546B64685463303019448A0008320244944206D1606803EB83018A0007490A445063054903EB830082000A44526BD268C1F80021C1F80C3110BD9E
:40288000F47A020840B94FF03F0383F31188BFF36F8FBFF34F8FFEE710B50C46054BD3F800111831FFF740F901212046FFF7B4FD10BD00BFF47A020838B540B94FF03F039D
:4028C00083F31188BFF36F8FBFF34F8FFEE70C461546074AD2F800111831FFF719F90DB14FF0FF3429462046FFF796FD38BD00BFF47A020838B5C368DC6844B94FF03F03E6
:4029000083F31188BFF36F8FBFF34F8FFEE704F118052846FFF722F9154BD3F81831ABB9251D2846FFF71AF9E36A114AD2F80C21934202D90E4AC2F80C3103EB83039A0095
:4029400029460C481044FFF7E3F803E029460A48FFF7DEF8E26A064BD3F80031DB6A9A4204D90120024BC3F8280138BD002038BDF47A0208247B0208087B0208034BD3F845
:4029800020210260D3F8143143607047F47A0208F8B540B94FF03F0383F31188BFF36F8FBFF34F8FFEE7054641B94FF03F0383F31188BFF36F8FBFF34F8FFEE70C4600F0FB
:4029C00079FA124BD3F814016968421A2368B3F1FF3F14D02F680D4ED6F82061B74201D088420ED29A4206D29B1A23602846FFF7C5FF002406E000232360012402E0002405
:402A000000E0012400F078FA2046F8BDF47A02080122024BC3F82821704700BFF47A0208064BD3F804312BB1044BD3F818311BB9022070470120704700207047F47A0208D6
:402A4000064B1A681368B3FA83F35B09036013B9D368186870470020704700BF207C020808B54160006191420AD8D21A83699A4211D2011D0A4B5868FFF756F8002008BD3D
:402A80009A4201D2994208D2011D054B1868FFF74BF8002008BD012008BD012008BD00BF207C020870B500F005FA0E4B9B68B3B90C4C04F10C063046FFF71AF804F12005A2
:402AC0002846FFF715F82660656000220C210A20FFF734F9A06010B10349FFF73BFB00F00BFA70BD207C0208B87B081000B583B0FFF7D8FF0D4B9B6853B10D4B019303230C
:402B00000093002380220B490B48FFF7B9FC00E0002040B94FF03F0383F31188BFF36F8FBFF34F8FFEE703B05DF804FB207C0208547C0208C07B0810D12D081040B94FF015
:402B40003F0383F31188BFF36F8FBFF34F8FFEE730B585B015460446124A9068F0B11A46019102950394052913DCFFF759FF022807D10023089A01A90A488068FFF704F902
:402B80000DE000231A4601A906488068FFF7FCF805E0002301A9FFF7BFF900E0002005B030BD00BF207C020870B582B029E0DB681E68DC68251D2846FEF7D0FF636A204660
:402BC0009847E369012B1CD1A36933449E4207D2636024612946104B1868FEF7A5FF10E0002100910B4632462046FFF7A7FF40B94FF03F0383F31188BFF36F8FBFF34F8FF4
:402C0000FEE7054B1B681A68002AD0D1024A51681160536002B070BD207C020838B50546FFF7A8FC0446074B9B6B984204D2FFF7BBFF01232B6001E000232B60014B9C6384
:402C4000204638BD207C020870B582B005460E46134B1B68DB68DC68201DFEF77FFFE369012B18D1A1692B46324629442046FFF7F7FE80B1002100910B462A462046FFF733
:402C80005DFF40B94FF03F0383F31188BFF36F8FBFF34F8FFEE7636A2046984702B070BD207C020870B582B006460C46FFF758FC01A8FFF7B3FF019B1BBB054644B9B04237
:402CC00006D3FFF7DBFC29463046FFF7BDFF1AE02CB10E4B5B681C68B4FA84F464092246711B0A4B9868FFF749FAFFF7C7FC50B94FF08052064B1A60BFF34F8FBFF36F8F2D
:402D000001E0FFF7BBFC02B070BD00BF207C020804ED00E030B587B04DE0039B002B4ADB059C636913B1201DFEF718FF02A8FFF775FF039B092B3ED8DFE803F00505053D3D
:402D4000273A05053D270499A5690B46024629442046FFF785FE70B3636A20469847E369012B28D1A269002100910B46049802442046FFF7E3FEF0B94FF03F0383F31188E8
:402D8000BFF36F8FBFF34F8FFEE70499A16141B94FF03F0383F31188BFF36F8FBFF34F8FFEE70346024601442046FFF759FE02E0204600F09FFA002203A9044B9868FFF733
:402DC0001DF90028A9D107B030BD00BF207C020800B583B001A8FFF733FE0199FFF762FFFFF798FFF6E700BF82B0002301930D4B1B68B3F1FF3F08D04FF03F0383F3118832
:402E0000BFF36F8FBFF34F8FFEE74FF03F0383F31188BFF36F8FBFF34F8F019B002BFCD002B070475062020808480068006880F308884FF0000080F3148862B661B6BFF393
:402E40004F8FBFF36F8F00DF00BF000008ED00E0DFF80C00016841F4700101607047000088ED00E04FF0807340F8043C21F0010140F8081C054B40F80C3C40F8202C6FF026
:402E8000020340F8243C4438704700BFE92D0810074B19680868B0E8F04F80F30988BFF36F8F4FF0000080F311887047AFF30080F47B02084FF03F0383F31188BFF36F8FAA
:402EC000BFF34F8F0A4A136801331360012B0DD1084B1B6813F0FF0F08D04FF03F0383F31188BFF36F8FBFF34F8FFEE7704700BF5062020804ED00E0094B1B6843B94FF039
:402F00003F0383F31188BFF36F8FBFF34F8FFEE7013B034A13600BB983F31188704700BF50620208000000000000000000000000EFF30980BFF36F8F154B1A681EF0100FF0
:402F400008BF20ED108A20E9F04F10602DE909004FF03F0080F31188BFF34F8FBFF36F8FFFF72CFC4FF0000080F3118809BC19680868B0E8F04F1EF0100F08BFB0EC108A22
:402F800080F30988BFF36F8F704700BFAFF30080F47B020808B54FF03F0383F31188BFF36F8FBFF34F8FFFF7EBFA18B14FF08052024B1A60002383F3118808BD04ED00E07B
:402FC000084A0023136008490B60084B1B680849A1FB03139B09013B06490B6007231360704700BF10E000E018E000E030620208D34D621014E000E010B582B02A4B1A78FF
:40300000D2B20192FF221A701B78DBB28DF803309DF80330254A03F03F0313700723536009E0224A5368013B53609DF803305B00DBB28DF803309DF8033013F0800FF0D1A8
:403040001A4B5B68042B08D04FF03F0383F31188BFF36F8FBFF34F8FFEE71B0203F4E063124A5360019BDBB20F4A1370104B1A6842F47F021A601A6842F07F421A60FFF70E
:403080009FFF00240B4B1C60FFF7E2FE0A4A136843F040431360FFF7C7FEFFF78FFBFFF7A3FE204602B010BD00E400E05C7C020820ED00E05062020834EF00E0EFF305833B
:4030C0000F2B0FD9104A9B5CDBB2104A1278934208D24FF03F0383F31188BFF36F8FBFF34F8FFEE70A4B1B6803F4E063074A5268934208D94FF03F0383F31188BFF36F8F75
:40310000BFF34F8FFEE77047F0E300E05C7C02080CED00E008B54FF03F0383F31188BFF36F8FBFF34F8F4FF441710248FEF776F8FEE700BFC87B0810134A12F0070F07D07B
:40314000D11D21F00701C1F5404313440A4601E04FF440430D49C1F858250020C1F85C051344083B23F00703C1F8603558601860981A50601360C1F86405C1F868054FF06A
:403180000043C1F86C357047647C02080C370308134B00E013461A688242FBD310B45C681919884203D14168214459601846446801198A420DD10B49D1F860158A4206D0B7
:4031C0005268224442601A681268026002E0016000E00260984200D018605DF8044B7047643C03080C37030870B50446FFF7B8F93F4BD3F860350BB9FFF79EFF3C4BD3F80B
:403200006C351C425CD194B1083414F0070F0ED024F00704083404F0070343B14FF03F0383F31188BFF36F8FBFF34F8FFEE7002C48D02F4BD3F868359C4245D82C4BD3F884
:40324000585503F5AB6301E02B4615466A68944202D92A68002AF7D1254AD2F86025954234D01E6808362A681A606B681B1B102B10D9281910F0070F08D04FF03F0383F32B
:403280001188BFF36F8FBFF34F8FFEE743606C60FFF77EFF6A681649D1F868359B1AC1F86835D1F864158B4202D21149C1F864350F4BD3F86C351A436A6000232B6006E0BC
:4032C000002604E0002602E0002600E00026FFF7D5F916F0070F08D04FF03F0383F31188BFF36F8FBFF34F8FFEE7304670BD00BF0C370308B8B338B50346A0F1080550F8EC
:40330000042C1949D1F86C1512EA010408D14FF03F0383F31188BFF36F8FBFF34F8FFEE750F8080C40B14FF03F0383F31188BFF36F8FBFF34F8FFEE7A4B198B91C4622EA0C
:40334000010243F8042CFFF70BF954F8043C064AD2F868150B44C2F868352846FFF718FFFFF78CF938BD70470C37030870B539B900240AE015F8010BFDF70EFB013402E0DA
:4033800016460D460024B442F4DB204670BD00BF70B561B900240FE0FDF70AFBC0B2287001340A2808D00D2806D0013502E016460D460024B442EFDB204670BD08B502493E
:4033C0000248FEF721FB08BDAC9A03080000664008B5114B1B785BB9104A11491148FEF7EFF811491148FDF7DDFE01220A4B1A700E4BB3F90030002B08DB590903F01F03CF
:40340000012202FA03F30A4A42F82130054A136843F00043136008BD7C3C0308AC9A0308187C081000006640BD3308103078081000E100E0F8B5C1F30A56A6F2FF35132D64
:4034400002460B460C46864610DC002D2EDB0F461E4929410B4226D04FF400242C413C4424EA0104002621463046F8BD332D05DDB5F5806F20D010461946F8BDA6F21346C5
:403480004FF0FF3121FA06F63042F4D00123C5F1330503FA05F52D1828BFE41825EA060621463046F8BD0028D6D1E4E7013501F0004404D00026D6E700F09CFDF8BD44F044
:4034C0007F5444F440140026CDE700BFFFFF0F002DE9F04F89B000F1040A0691013904938B0802910392D0F80090059300F0858000F11406019304270024CDF81CA03EE0A5
:40350000D0464946504601F0F3FC5946002818BF2C464046BD1E01F009FD002840D0D9465946404601F002FD56F808AC56F8048C002818BF2C465146484607F1FF3B01F003
:40354000F5FC58B355465146484601F0EFFC4146002818BF5C46284601F0E8FCE0B1C1464146284601F0E2FC019B002818BF3C46013B06F1100607F10407019312D056F8BF
:4035800010AC56F80CBC50464946FD1E01F0B0FC0028B5D1C846B4E7A946E1E74D46D2E7C146BDE7059BDDF81CA00AEB031A029B13F0030519D0069B5D1B98460BE03E461D
:4035C0004946384601F094FC002818BF2C460135A845B1460AD05AF8047B4946384601F087FC0028EBD14E46EAE74E46039B1E60049B1C6009B0BDE8F08F1C460B46D7E724
:403600002DE9F0475FEA91098846074692464FF000051AD000F110044E4654F8101C284601F0C0F954F80C1C01F0BCF954F8081C01F0B8F954F8041C01F0B4F9013E054650
:4036400004F11004E9D107EB091718F0030407D0284657F8041B01F0A5F9013C0546F7D1404601F04FFA0146284601F057FBCAF80000BDE8F08700BF2DE9F04F89B000F100
:40368000040A0691013904938B0802910392D0F80090059300F0858000F11406019304270024CDF81CA03EE0D0464946504601F03DFC5946002818BF2C464046BD1E01F0A0
:4036C00017FC002840D0D9465946404601F010FC56F808AC56F8048C002818BF2C465146484607F1FF3B01F003FC58B355465146484601F0FDFB4146002818BF5C4628465C
:4037000001F0F6FBE0B1C1464146284601F0F0FB019B002818BF3C46013B06F1100607F10407019312D056F810AC56F80CBC50464946FD1E01F0FAFB0028B5D1C846B4E7C2
:40374000A946E1E74D46D2E7C146BDE7059BDDF81CA00AEB031A029B13F0030519D0069B5D1B98460BE03E464946384601F0DEFB002818BF2C460135A845B1460AD05AF8D3
:40378000047B4946384601F0D1FB0028EBD14E46EAE74E46039B1E60049B1C6009B0BDE8F08F1C460B46D7E770B5049C826004F18044013C05460C4401801E46A200184641
:4037C000002101F0C8FB6E6070BD00BF2DE9F04F0546A1B06C681E9000881A94264600F18048AC681F9308F1FF3827461494DB0806EB8804159011911C921B941D9300F0BD
:40380000838396461A46C3082546169304465B0138461844043B199304F00703179305F120030F930B462033109306F120030E9373462033189013931292109A0F9C52F8FA
:40384000203C44F8203C52F81C3C44F81C3C11460A4651F8183C44F8183C51F8143C44F8143C51F8103C44F8103C51F80C3C44F80C3C52F8083C44F8083C52F8043C0E9AB3
:4038800044F8043C52F8203C0093134652F81C2C03921A46194653F8183C049352F8143C059351F80C3C52F8102C079351F8083C0692089316980B1F002800F08A83149B8F
:4038C0000B900022203301F11C040193164617460A92914692469346904615460294019B029A53F8204C52F8201C09912046009901F060F9414601F055F803990D902046B2
:4039000001F058F9594601F04DF804998346204601F050F9514601F045F805998246204601F048F9494601F03DF806998146204601F040F90A9901F035F80799804620466F
:4039400001F038F9394601F02DF808990746204601F030F9314601F025F809990646204601F028F9029B019C53F81CEC294654F81C5CCDF800E001F015F803990C9028462E
:4039800001F018F90D9B0146184601F00BF804990A90284601F00EF9594601F003F805998346284601F006F9514600F0FBFF06998246284601F0FEF8494600F0F3FF079989
:4039C0008146284601F0F6F8414600F0EBFF029B089953F818CCCDF80CC080462846019401F0E8F8394600F0DDFF29460746099854F8184C01F0DEF8314600F0D3FF0099C9
:403A00000646284601F0D6F80C9A114600F0CAFF04990546204601F0CDF80A9B0146184600F0C0FF05990A90204601F0C3F8594600F0B8FF06998346204601F0BBF85146C1
:403A400000F0B0FF07998246204601F0B3F8494600F0A8FF08998146204601F0ABF8414600F0A0FF21468046099801F0A3F8394600F098FF21460746009801F09BF83146F8
:403A800000F090FF03990646204601F093F8029A019C52F814ECCDF810E029460B9D013D0B9500F07FFF54F8145C05990C90284601F080F80A9B0146184600F073FF0A900F
:403AC0000699284601F076F8594600F06BFF07998346284601F06EF8514600F063FF029B089953F810CCCDF814C082462846019401F060F8494600F055FF2946814609988E
:403B000054F8104C01F056F8414600F04BFF29468046009801F04EF8394600F043FF29460746039801F046F8314600F03BFF04990646284601F03EF80C9A114600F032FF65
:403B400006990546204601F035F80A9B0146184600F028FF07990D90204601F02BF8594600F020FF08998346204601F023F8514600F018FF21468246099801F01BF8494634
:403B800000F010FF21468146009801F013F8414600F008FF21460A90039801F00BF8394600F000FF21460746049801F003F8314600F0F8FE05990646204600F0FBFF029B58
:403BC000019C53F80C8CCDF81880294600F0EAFE54F80C5C07990C90284600F0EBFF0D9B0146184600F0DEFE029A019B52F808EC089953F8084CCDF81CE08046284600F0B5
:403C0000D9FF594600F0CEFE29468346099800F0D1FF514600F0C6FE29468246009800F0C9FF494600F0BEFE29468146039800F0C1FF0A9900F0B6FE29460A90049800F04E
:403C4000B9FF394600F0AEFE29460746059800F0B1FF314600F0A6FE06990646284600F0A9FF0C9A114600F09DFE08990546204600F0A0FF0146404600F094FE2146804697
:403C8000099800F097FF594600F08CFE21468346009800F08FFF514600F084FE21468246039800F087FF494600F07CFE21468146049800F07FFF0A9B194600F073FE214638
:403CC0000A90059800F076FF394600F06BFE21460746069800F06EFF314600F063FE029B019A53F804CC0799CDF820C00646204652F8044C00F05EFF294600F053FE214691
:403D00000546099800F056FF414600F04BFE21468046009800F04EFF594600F043FE21468346039800F046FF514600F03BFE21468246049800F03EFF494600F033FE2146F1
:403D40008146059800F036FF0A9B194600F02AFE21460A90069800F02DFF394600F022FE21460746079800F025FF314600F01AFE08990646204600F01DFF029B019A294668
:403D800002F1200403F120020194029200F00AFE0B9B0546002B7FF4A2AD199B0E990196189E02460B44179900297BD0CDF80880DDF81480CDF814B0DDF820B0CDF820A00B
:403DC000DDF81CA0CDF81C90DDF818900697049F04933346039E099153F8044B0393049B009953F8045B049320460B9200F0E2FE0146029800F0D6FD31460290204600F03A
:403E0000D9FE0146059800F0CDFD39460590204600F0D0FE0146089800F0C4FD41460890204600F0C7FE0146079800F0BBFD49460790204600F0BEFE01460A9800F0B2FDB5
:403E400051460A90204600F0B5FE0146069800F0A9FD59460690204600F0ACFE0146019800F0A0FD29460190204600F0A3FE0B9A00960146104600F095FD099B013B3E4636
:403E8000099347460246C846039BD146DA46AB46A2D1DDF80880DDF814B0DDF820A0DDF81C90069F13990A9841F8208C0B4641F81CBC41F818AC41F8149C41F8100C41F890
:403EC0000C7C43F8042C0F9A019943F8081C20320F92109A20332032109213930E9A129B2032013B0E9212937FF4A7AC1D9B1B9A5B011A441B92119A1A4411921A9A1A4423
:403F00001A921C9A1A441C921F9B13F007092CD01B9B1A9EDDF870A0CDF80090A3F104084F46119A159C52F8043B48F8043FDDF8509011920025B34659F8041B5BF8040BBD
:403F400000F038FE0146284600F02CFD013C0546F2D1013F4AF8040B06F10406E1D11A9BDDF8009003EB89031A93159B591E1E9B8E085C681FD01A9B04F1100210333046DF
:403F800053F8105C42F8105C53F80C5C42F80C5C53F8085C42F8085C53F8045C42F8045C013803F1100302F11002E9D11A9A33011A441C441A9211F0030307D01A99221F9A
:403FC00051F8040B42F8040F013BF9D121B0BDE8F08F0022149E019217460A929146924693469046DFE600BF81F0004102E000BF83F0004330B54FEA41044FEA430594EA74
:40400000050F08BF90EA020F1FBF54EA000C55EA020C7FEA645C7FEA655C00F0E2804FEA5454D4EB5555B8BF6D420CDD2C4480EA020281EA030382EA000083EA010180EA13
:40404000020281EA0303362D88BF30BD11F0004F4FEA01314FF4801C4CEA113102D0404261EB410113F0004F4FEA03334CEA133302D0524263EB430394EA050F00F0A78060
:40408000A4F10104D5F1200E0DDB02FA0EFC22FA05F2801841F1000103FA0EF2801843FA05F359410EE0A5F120050EF1200E012A03FA0EFC28BF4CF0020C43FA05F3C018FC
:4040C00051EBE37101F0004507D54FF0000EDCF1000C7EEB00006EEB0101B1F5801F1BD3B1F5001F0CD349085FEA30004FEA3C0C04F101044FEA445212F5800F80F09A8029
:40410000BCF1004F08BF5FEA500C50F1000041EB045141EA050130BD5FEA4C0C404141EB010111F4801FA4F10104E9D191F0000F04BF01460020B1FA81F308BF2033A3F168
:404140000B03B3F120020CDA0C3208DD02F1140CC2F10C0201FA0CF021FA02F10CE002F11402D8BFC2F1200C01FA02F120FA0CFCDCBF41EA0C019040E41AA2BF01EB0451CB
:40418000294330BD6FEA04041F3C1CDA0C340EDC04F11404C4F1200220FA04F001FA02F340EA030021FA04F345EA030130BDC4F10C04C4F1200220FA02F001FA04F340EAC5
:4041C0000300294630BD21FA04F0294630BD94F0000F83F4801306BF81F480110134013D4EE77FEA645C18BF7FEA655C29D094EA050F08BF90EA020F05D054EA000C04BFFC
:404200001946104630BD91EA030F1EBF0021002030BD5FEA545C05D14000494128BF41F0004130BD14F580043CBF01F5801130BD01F0004545F0FE4141F470014FF00000DA
:4042400030BD7FEA645C1ABF194610467FEA655C1CBF0B46024650EA013406BF52EA033591EA030F41F4002130BD00BF90F0000F04BF0021704730B54FF4806404F1320464
:404280004FF000054FF0000150E700BF90F0000F04BF0021704730B54FF4806404F1320410F0004548BF40424FF000013EE700BF42004FEAE2014FEA31014FEA02701FBFDF
:4042C00012F07F4393F07F4F81F06051704792F0000F14BF93F07F4F704730B54FF4607401F0004521F0004120E700BF50EA010208BF704730B54FF000050AE050EA01020F
:4043000008BF704730B511F0004502D5404261EB41014FF4806404F132045FEA915C3FF4DCAE4FF003025FEADC0C18BF03325FEADC0C18BF033202EBDC02C2F1200300FA4F
:4043400003FC20FA02F001FA03FE40EA0E0021FA02F11444C1E600BF70B54FF0FF0C4CF4E06C1CEA11541DBF1CEA135594EA0C0F95EA0C0F00F0DEF82C4481EA030621EA9A
:404380004C5123EA4C5350EA013518BF52EA033541F4801143F4801338D0A0FB02CE4FF00005E1FB02E506F00042E0FB03E54FF00006E1FB03569CF0000F18BF4EF0010EBB
:4043C000A4F1FF04B6F5007F64F5407404D25FEA4E0E6D4146EB060642EAC62141EA55514FEAC52040EA5E504FEACE2EB4F1FD0C88BFBCF5E06F1ED8BEF1004F08BF5FEA80
:40440000500E50F1000041EB045170BD06F0004646EA010140EA020081EA0301B4EB5C04C2BFD4EB0C0541EA045170BD41F480114FF0000E013C00F3AB8014F1360FDEBFD4
:40444000002001F0004170BDC4F10004203C35DA0C341BDC04F11404C4F1200500FA05F320FA04F001FA05F240EA020001F0004221F0004110EBD37021FA04F642EB060151
:404480005EEA430E08BF20EAD37070BDC4F10C04C4F1200500FA04F320FA05F001FA04F240EA020001F0004110EBD37041F100015EEA430E08BF20EAD37070BDC4F120050F
:4044C00000FA05F24EEA020E20FA04F301FA05F243EA020321FA04F001F0004121FA04F220EA020000EBD3705EEA430E08BF20EAD37070BD94F0000F0FD101F000464000FE
:4045000041EB010111F4801F08BF013CF7D041EA060195F0000F18BF704703F00046520043EB030313F4801F08BF013DF7D043EA0603704794EA0C0F0CEA135518BF95EA1F
:404540000C0F0CD050EA410618BF52EA4306D1D181EA030101F000414FF0000070BD50EA410606BF1046194652EA430619D094EA0C0F02D150EA013613D195EA0C0F05D11E
:4045800052EA03361CBF104619460AD181EA030101F0004141F0FE4141F470014FF0000070BD41F0FE4141F4780170BD70B54FF0FF0C4CF4E06C1CEA11541DBF1CEA1355FD
:4045C00094EA0C0F95EA0C0F00F0A7F8A4EB050481EA030E52EA03354FEA013100F088804FEA03334FF0805545EA131343EA12634FEA022245EA111545EA10654FEA0026DF
:404600000EF000419D4208BF964244F1FD0404F5407402D25B084FEA3202B61A65EB03055B084FEA32024FF480104FF4002CB6EB020E75EB030E22BFB61A754640EA0C0038
:404640005B084FEA3202B6EB020E75EB030E22BFB61A754640EA5C005B084FEA3202B6EB020E75EB030E22BFB61A754640EA9C005B084FEA3202B6EB020E75EB030E22BF5F
:40468000B61A754640EADC0055EA060E18D04FEA051545EA16754FEA06164FEAC30343EA52734FEAC2025FEA1C1CC0D111F4801F0BD141EA00014FF000004FF0004CB6E7B9
:4046C00011F4801F04BF01430020B4F1FD0C88BFBCF5E06F3FF6AFAEB5EB030C04BFB6EB020C5FEA500C50F1000041EB045170BD0EF0004E4EEA113114EB5C04C2BFD4EB4E
:404700000C0541EA045170BD41F480114FF0000E013C90E645EA060E8DE60CEA135594EA0C0F08BF95EA0C0F3FF43BAF94EA0C0F0AD150EA01347FF434AF95EA0C0F7FF484
:4047400025AF104619462CE795EA0C0F06D152EA03353FF4FDAE1046194622E750EA410618BF52EA43067FF4C5AE50EA41047FF40DAF52EA43057FF4EBAE12E74FF0FF3CA8
:4047800006E000BF4FF0010C02E000BF4FF0010C4DF804CD4FEA410C7FEA6C5C4FEA430C18BF7FEA6C5C1BD001B050EA410C0CBF52EA430C91EA030F02BF90EA020F00204C
:4047C000704710F1000F91EA030F58BF994208BF90422CBFD8176FEAE37040F0010070474FEA410C7FEA6C5C02D150EA013C07D14FEA430C7FEA6C5CD6D152EA033CD3D015
:404800005DF8040B704700BF8446104662468C461946634600E000BF01B5FFF7B7FF002848BF10F1000F01BD4DF808EDFFF7F4FF0CBF012000205DF808FB00BF4DF808ED7E
:40484000FFF7EAFF34BF012000205DF808FB00BF4DF808EDFFF7E0FF94BF012000205DF808FB00BF4DF808EDFFF7CEFF94BF012000205DF808FB00BF4DF808EDFFF7C4FFB9
:4048800034BF012000205DF808FB00BF4FEA410C7FEA6C5C02D150EA013C0AD14FEA430C7FEA6C5C02D152EA033C02D14FF0000070474FF0010070474A0011D212F50012C4
:4048C00011D20DD56FF47873B3EB62520ED44FEAC12343F0004343EA505323FA02F070474FF00000704750EA013002D14FF0FF3070474FF0000070474FEA4102B2F1E043B7
:4049000024BFB3F5001CDCF1FE5C0DD901F0004C4FEAC0024CEA5070B2F1004F40EB830008BF20F00100704711F0804F21D113F13872BCBF01F00040704741F480114FEA94
:404940005252C2F11802C2F1200C10FA0CF320FA02F018BF40F001004FEAC1234FEAD32303FA0CFC40EA0C0023FA02F34FEA4303CCE77FEA625307D150EA01331EBF4FF07F
:40498000FE4040F44000704701F0004040F0FE4040F40000704700BF80F0004002E000BF81F0004142001FBF5FEA410392EA030F7FEA226C7FEA236C6AD04FEA1262D2EB74
:4049C0001363C1BFD218414048404140B8BF5B42192B88BF704710F0004F40F4000020F07F4018BF404211F0004F41F4000121F07F4118BF494292EA030F3FD0A2F1010260
